:1000000000000A128A111228FF0003088316031742
:10001000A5000408A6000A08A7007E08A8000A1682
:100020008A11C72D0A168A11FC2A503441345534DE
:100030005334453420344F344634463400340A16A1
:100040008A115F230A128A11F801082193010A120A
:100050008A15F6230A128A110317900059280310F3
:10006000780DAD3E840012300318013EBA000A1626
:100070008A110020B900840A0319BA0A3A080A163C
:100080008A1100200A128A11BA00082113081307E6
:1000900013070B21390784003A080318013E0A169A
:1000A0008A1100200A128A110821100603198228D9
:1000B000930A0310780DAD3E840012300318013E00
:1000C0000B21BA000A168A110020B900840A03190C
:1000D000BA0A3A080A168A1100200A128A11BA00CE
:1000E00008211308130713070B21390784003A0866
:1000F0000318013E0A168A1100200A128A110F3ACB
:10010000031D2F280310780DAD3E84001230031814
:10011000013E0B21BA000A168A110020B900840A98
:100120000319BA0A3A080A168A1100200A128A111B
:10013000BA0008211308130713070B213907BB0066
:100140003A080318013EBC0001303B0784003C081C
:1001500003183C0A0A168A1100200A128A15002088
:100160000310780DAD3E840012300318013EBA0032
:100170000A168A110020B900840A0319BA0A3A083B
:100180000A168A1100200A128A11BA0008211308DF
:10019000130713070B213907BB003A080318013E68
:1001A000BC0002303B0784003C0803183C0A0A16D6
:1001B0008A1100200A128A11F80008219101920187
:1001C0000B21DA1CEE285A08FD39DA005A0C0139E5
:1001D0000030031901300821910092010821120812
:1001E0001104031925280B21BF0A4008043EB90059
:1001F000003003180130BA00803ABB0080303B0267
:10020000031D04293F08390203182528BF012528AA
:100210008316031708008312031308004708003AE7
:10022000003003190130C7001529D410C7308400ED
:1002300010300A168A1100200A128A11D3005411B4
:10024000C3157808043A031D2929C701441E29292A
:10025000C70A470803193129FD30A3001030A40054
:10026000542B1B30A3000030A400542BD410C730F3
:10027000840010300A168A1100200A128A11D30055
:100280005411C3114708F300F30E44087306EF3905
:100290007306C400F201441AF20A043056220A120C
:1002A0008A115229FD27D410C730840010300A1655
:1002B0008A1100200A128A11D3005411DB01DC01DB
:1002C000DD0186108510C6010310460DB53E840081
:1002D00083170008A300840A0008A400542B2830C8
:1002E0004702031CC70A7929023047020318C703D3
:1002F0007929D410C730840010300A168A110020E2
:100300000A128A11D3005411C3157808083A031D44
:100310008C290310450CC700D9015A155A10043016
:10032000BF00C000BB30A8004708AA002808A900E9
:100330000330A907AB01290884000A30A3002A086A
:100340009D270A128A11303E83178000A9032A08CC
:10035000A400A5010A30A600A70122240A128A11CE
:1003600083132408AA00AB0A04302B02031C9B2928
:10037000BB30BD008130BE004214C2144215C2150C
:100380000800D410C730840010300A168A110020EB
:100390000A128A11D3005411C3110310470DC5006E
:1003A0004508F200023056220A128A11D729FD2789
:1003B000D410C730840010300A168A1100200A12A7
:1003C0008A11D3005411DB01DC01DD018610851098
:1003D0001030CC00441AEE290330CC070230C6009E
:1003E0000310460DB53E840083170008A300840A5D
:1003F0000008A400542BD410C730840010300A1613
:100400008A1100200A128A11D3005411C31148081E
:10041000AE004908AF004A08B00002300310AE0D2C
:10042000AF0DB00DFF3E031D0E2A1030B100300D90
:10043000B00CAF0CAE0CB10B172A2E08F200460818
:1004400046074607103E56220A128A11FD27480821
:10045000AE004908AF004A08B00002300310AE0DEC
:10046000AF0DB00DFF3E031D2E2A0830B100300D38
:10047000B00CAF0CAE0CB10B372A2E08F2004608B8
:1004800046074607113E56220A128A11FD274808E0
:10049000AE000310AE0D03102E0DF2004608460705
:1004A0004607123E56220A128A11CC2AF100831600
:1004B00003178C18572A710883128D0072088C005C
:1004C0003F3083168C050310FD278B1B03148B1301
:1004D000831603170C1555308D00AA308D008C142F
:1004E0000C11031C0800FD278B1708004708043A6D
:1004F000031D7C2AC7017D2AC70A7E2AD410C73073
:10050000840010300A168A1100200A128A11D300C2
:100510005411C3157808063A031D912A4408073977
:10052000C7004708003A0319A22A013A0319A72A6B
:10053000033A0319AC2A013A0319B62A073A031DF4
:100540000800B12AC130A3001030A400542BF730AA
:10055000A3001030A400542B1530A3000030A400D9
:10056000542B3030A3001130A400542BE830A300EA
:100570001030A400542BD410C730840010300A1659
:100580008A1100200A128A11D3005411C60A4608A3
:1005900045060319C601CC2A3D2B74308316031778
:1005A000BB006F30BC006E30BD005F30BE00C101CB
:1005B0000310FD27460CAC00BF30A800A80AAB0111
:1005C000280884000A30A3002C089D270A128A11EB
:1005D000303E83178000A8032C08A400A5010A3030
:1005E000A600A70122240A128A1183132408AC0052
:1005F000AB0A02302B0203184F2BE02A743083160B
:100600000317BB006F30BC006630BD00BE005F301A
:10061000BF00C201FD274608FF3EA400FF300318BB
:100620000030A5000230A600A70122240A128A1178
:1006300083132408AA00C030A900A90AAD01290823
:1006400084000A30A3002A089D270A128A11303E2E
:1006500083178000A9032A08A400A5010A30A60078
:10066000A70122240A128A1183132408AA00AD0AC2
:1006700002302D0203184F2B1F2BFD27460801398E
:10068000F200F3014B2B7208003A0319CD2A013A0C
:100690000319FE2A4F2B7308003A0319432BBB3072
:1006A000A3008130A400542BDA10CA30840010302B
:1006B0000A168A110020D9005A115A14BF012408C1
:1006C000BE002308BD002408A2002308A1002108C1
:1006D000840022080A168A1100200A128A110038A2
:1006E0000319762BA10A0319A20A672B23082102FA
:1006F000A000C0004210C2104211C2114212C21228
:100700004213C213080043144C08103A031D8A2BED
:100710004508992B4C08F03EA400FF300318003028
:10072000A5000330A600A70122240A128A11831310
:100730002408FF3EAE000C2C743083160317BB0058
:100740006F30BC006E30BD005F30BE00C1010310D1
:10075000FD272E0CAC00BF30A800A80AAD01280868
:1007600084000A30A3002C089D270A128A11303E0B
:1007700083178000A8032C08A400A5010A30A60056
:10078000A70122240A128A1183132408AC00AD0A9F
:1007900002302D0203181D2CAF2B74308316031763
:1007A000BB006F30BC006630BD00BE005F30BF00D4
:1007B000C201FD272E08FF3EA400FF3003180030C1
:1007C000A5000230A600A70122240A128A11831371
:1007D0002408AB00C030A900A90AAA012908840096
:1007E0000A30A3002B089D270A128A11303E831776
:1007F0008000A9032B08A400A5010A30A600A701C8
:1008000022240A128A1183132408AB00AA0A023098
:100810002A0203181D2CEE2B2E080139F200F301D9
:10082000192C7208003A03199C2B013A0319CD2B9D
:100830001D2C7308003A0319112CBB30A300813022
:10084000A400542BA101A71F2C2CA609A709A60AB6
:100850000319A70AA101A10AA51F352CA409A509FE
:10086000A40A0319A50A0130A106A201A3012708C1
:10087000260403195A2CA001A00A0310A71B442C1C
:10088000A60DA70D3C2C0310A20DA30D27082502D1
:10089000031D4C2C26082402031C562C2608A402F7
:1008A0002708031CA503A50222140310A70CA60CFD
:1008B000A00B432C21080319622CA209A309A20A48
:1008C0000319A30A2308A5002208A4000800431E58
:1008D000782C4C18C31A6F2C77187A2C7D2C430E69
:1008E000F200720C0139F300730C03187A2C7D2C82
:1008F0004C1C7D2CFD2785147F2CFD278510C319EA
:10090000771C842C0616852C0612431CC31808007D
:100910000130F200F301F4015B08AD005C08AE00A9
:100920005D08AF000430B000B101B2010A128A15AF
:10093000852283132D08F2072E0803182E0FF307C4
:100940002F0803182F0FF4077208B3007308B400C0
:100950007408B5003308AD003408AE003508AF00A8
:100960001030B0000E30B100B2010A128A15852293
:100970002D08B8000130F200F301F4015B08AD006E
:100980005C08AE005D08AF000430B000B101B201F8
:100990000A128A1585222D08F2072E0803182E0F39
:1009A000F3072F0803182F0FF4077208A20073082B
:1009B000A3007408A4001030A5000E30A600A70103
:1009C0000A128A15E22283132208B3002308B40016
:1009D0002408B5003308AD003408AE003508AF0078
:1009E0003C30B000B101B2010A128A1585222D08EF
:1009F000B7000130F200F301F4015B08AD005C08C0
:100A0000AE005D08AF000430B000B101B2010A12BF
:100A10008A1585222D08F2072E0803182E0FF307DA
:100A20002F0803182F0FF4077208A2007308A30001
:100A30007408A4003C30A500A601A7010A128A157B
:100A4000E2220A128A1183132208B6000A30380201
:100A5000031C382D4D30AA000230AB003808882521
:100A60000A128A114F30AA000230AB0037086E2DEF
:100A70000A3038020318612D38084D30AA000319D6
:100A8000632DAB01AB0A380888250A128A114E3053
:100A9000AA000230AB00370888250A128A115030AC
:100AA000AA00AB01AB0A0A30F1003608BA270A12D5
:100AB0008A1188250A128A114212C2164213C217DD
:100AC000752D4D30AA000230AB00370888250A1278
:100AD0008A114F30AA000230AB00360888250A126E
:100AE0008A114212C2124217C213431F7C2D4214B4
:100AF000C2144215C215802D4210C2104211C211FB
:100B00000430BF00C0004D30BD008030BE00080082
:100B1000A9002B03AA07A8012B0828020318080024
:100B20002A0884000A30A30029089D270A128A1186
:100B3000303E83138000AA032908A400A5010A30CF
:100B4000A600A70122240A128A112408A900A80AD3
:100B50008C2DD410C730840010300A168A11002062
:100B6000D30054110530433E840083130008AD00C8
:100B7000840A0008AE00840A0008AF001030B000FC
:100B80000E30B100B2010A128A1585222D08831693
:100B9000A7000530433E840000088312A200840AA7
:100BA0000008A300840A0008A4001030A5000E303D
:100BB000A600A7010A128A15E22283132208AD00BB
:100BC0002308AE002408AF003C30B000B101B201F0
:100BD0000A128A1585222D088316A8000530433E87
:100BE000840000088312A200840A0008A300840A7B
:100BF0000008A4003C30A500A601A7010A128A152E
:100C0000E2220A128A11831322088316A9006B2E8E
:100C10000A308312A300831627089D270A128A111F
:100C2000093A031D152E0930222E8316A70A7E2E9F
:100C30000A30F1002708BA270A128A11093A031D5F
:100C4000252E5A308316A7027E2E0A308316A70758
:100C50007E2E0A308312A300831628089D270A12CD
:100C60008A11093A031D362E0930432E8316A80A2D
:100C70007E2E0A30F1002808BA270A128A11053A96
:100C8000031D462E32308316A8027E2E0A308316AC
:100C9000A8077E2E0A308312A300831629089D27F9
:100CA0000A128A11093A031D572E0930642E831641
:100CB000A90A7E2E0A30F1002908BA270A128A11E1
:100CC000053A031D672E32308316A9027E2E0A30A4
:100CD0008316A9077E2E78080B3A0319082E073AC7
:100CE0000319182E013A0319292E033A0319392E34
:100CF000013A03194A2E1F3A03195A2E2708831264
:100D0000A000A101A2011030A3000E30A400003009
:100D1000A501D6270A128A112008B3002108B400C1
:100D20002208B500831629088312B600B701B8015E
:100D3000831628088312A000A101A2013C30A30061
:100D4000A401A501D6270A128A1183132008B60729
:100D500021080318210FB70722080318220FB8072C
:100D600083123608B30737080318370FB40738085B
:100D70000318380FB5073308C8003408C900350810
:100D8000CA00C92E8316A401A40A792F8316A401D0
:100D9000792F78080B3A0319C62E073A0319C22E89
:100DA000013A0319C62E033A0319C22E013A031958
:100DB000C62E1F3A0319C22E792F0530433E8400F8
:100DC00000088312AD00840A0008AE00840A0008FF
:100DD000AF001030B0000E30B100B2010A128A1517
:100DE00085220A128A112D088316A00083122E086C
:100DF0008316A10083122F088316A2008312B3006A
:100E0000330DB300031CB303B30233098316A300ED
:100E1000BA30A5001030772F0530433E840000081B
:100E20008312A200840A0008A300840A0008A40018
:100E30001030A5000E30A600A7010A128A15E22282
:100E400083132208AD002308AE002408AF003C3015
:100E5000B000B101B2010A128A1585220A128A1164
:100E60002D088316A00083122E088316A10083127A
:100E70002F088316A2008312B300330DB300031CA6
:100E8000B303B30233098316A300B430A5001030B6
:100E9000772F0530433E840000088312A200840AA5
:100EA0000008A300840A0008A4003C30A500A601A5
:100EB000A7010A128A15E2220A128A118313220854
:100EC0008316A000831223088316A100831224082E
:100ED0008316A2008312B300330DB300031CB303C7
:100EE000B30233098316A300B730A5001030A60063
:100EF0008C2F78080B3A0319DD2E073A0319DD2EE3
:100F0000013A03190C2F033A03190C2F013A031964
:100F1000492F1F3A0319492F831620088312AD0069
:100F2000831626088312AF00831625088312AE00AD
:100F3000831624080A128A15922B8312A000083007
:100F4000A100A2012008F10007300310F10CFF3EC0
:100F50000310031DA62F220D7104A2000310A00D83
:100F600023082202031CB62F2308A202A10BA22FE2
:100F7000220808008312A000A20171080319D42FCF
:100F8000A101A10A0310F11BC82FF10DC12F0310FD
:100F9000A20D71082002031CD12F7108A002221497
:100FA0000310F10CA10BC72F22080800F101F20178
:100FB000F301201CE92F2308F1072408031103186B
:100FC000240A031DF207250803110318250A031D2F
:100FD000F3070310A30DA40DA50D0310A20CA10C83
:100FE000A00C220821042004031DD92F7108A000A1
:100FF0007208A1007308A2000800831203130800FE
:10100000FE0008308A007E08820700000A128A1556
:101010008E290A128A11BB2A0A128A11FB290A1286
:101020008A11A92D0A128A11762A0A168A112B2BE7
:101030000A128A11C1290A128A1174290A128A1104
:101040006F290A128A1179290A168A1178290A1237
:101050008A1115290A128A110E290A128A117E2A6A
:101060000A168A11432B0A168A11BD280A128A1100
:10107000D7290A168A11D0280A128A1136290A1687
:101080008A116F2A0A128A11832B0A168A11CF2A13
:101090000A128A1583280A168A118D2A0A128A11C1
:1010A000672C0A128A1566280A128A15352B0A122D
:1010B0008A1152290A168A11C3290A168A11B328DD
:1010C0000A168A1100290A168A11CB28C3100800B3
:1010D0008316031794019501161C742818089407A9
:1010E0000318950A190895070310980D990D031018
:1010F000970C960C17081604031D6C28150897000A
:101100001408960008008821C301C401C5018B2181
:101110004C0879230A128A150313A600A501A4011D
:1011200024088821C3048B2125088821C4048B212D
:1011300026088821C5048B214C0A79230A128A15B6
:101140000313A400A501A6012508A6002408A500F4
:10115000A40124088821C3048B2125088821C40404
:101160008B2126088821C5048B214C08023E792357
:101170000A128A150313A400A501A6018821C3043D
:101180008B2125088821C4048B2126088821C504C9
:101190008B21441EE6280330CC074508A000A1019E
:1011A0000330A200A30136210A128A1583132008F6
:1011B000103EA40021080318013E003EA5004C0883
:1011C00024062504031D1529103014294C08F03E6F
:1011D000A000FF3003180030A1000630A200A301D8
:1011E0004F210A128A158313210820040319FB28B2
:1011F0000330CC02FD280630CC074508A000A10131
:101200000330A200A30136210A128A152008103EDD
:10121000A40021080318013E003EA5004C08240646
:101220002504031D15291330CC00882145084404EA
:1012300043048B2103193429DE10882143088B21B4
:10124000DB00882144088B21DC00882145088B21A4
:10125000DD005E11431A08004C1C31298B218614D5
:1012600008008B2186100800DE140800F101F2014D
:10127000201C40292208F1070318F20A2308F2076C
:101280000310A20DA30D0310A10CA00C2108200433
:10129000031D38297208A1007108A0000800F1019F
:1012A000A11F5929A009A109A00A0319A10AF10146
:1012B000F10AA31F6029A209A309A20A0319A30A1C
:1012C0002308220403197F29F201F20AA31B6C29C7
:1012D0000310A20DA30D652923082102031D722905
:1012E00022082002031C7B292208A0022308031CD9
:1012F000A103A1020310A30CA20CF20B6C2971082C
:1013000003190800A009A109A00A0319A10A0800ED
:10131000831603170800831203130800D410C73084
:10132000840010300A168A1100200A128A15D30090
:101330005411C315F329C801C901CA01460846075B
:101340004607103E79230A128A15F600F501F401CA
:1013500074080313C8047508C9047608CA0446084B
:1013600046074607113E79230A128A15F400F50153
:10137000F6017508F6007408F500F401740803130B
:10138000C8047508C9047608CA0446084607460713
:10139000123E79230A128A15F400F501F6010313AF
:1013A000C8047508C9047608CA040530433E8400A1
:1013B00083130008AD00840A0008AE00840A000808
:1013C000AF000430B000B101B20185220A128A15C3
:1013D0002D08C8002E08C9002F08CA00B301672ACB
:1013E000B301B30A672A78080A3A03199B29013A1C
:1013F0000319F029073A0319EE29013A0319F029D4
:10140000033A0319EE29013A0319F0291F3A031987
:10141000EE29672A0530433E840083130008AD009F
:10142000840A0008AE00840A0008AF001030B00043
:101430000E30B100B20185220A128A152D08B600BD
:10144000BA30B4001030652A0530433E840083135F
:101450000008A200840A0008A300840A0008A4006F
:101460001030A5000E30A600A701E2220A128A154C
:1014700083132208AD002308AE002408AF003C30DF
:10148000B000B101B20185220A128A152D08B600FA
:10149000B430B4001030652A0530433E8400831315
:1014A0000008A200840A0008A300840A0008A4001F
:1014B0003C30A500A601A701E2220A128A15831377
:1014C0002208B600B730B4001030B5007D2A780885
:1014D0000A3A03190A2A013A03190A2A073A031990
:1014E000242A013A0319242A033A03194C2A013AFF
:1014F00003194C2A1F3A03190A2A3608AD00350889
:10150000AF003408AE003308922BA901B21F922A13
:10151000B009B109B209B00A0319B10A0319B20A34
:10152000A901A90AAF1F9E2AAD09AE09AF09AD0AEC
:101530000319AE0A0319AF0A0130A906AA01AB01CB
:10154000AC013208310430040319D02AA801A80ADA
:101550000310B21BB02AB00DB10DB20DA72A0310B3
:10156000AA0DAB0DAC0D32082F02031DBD2A3108A8
:101570002E02031DBD2A30082D02031CCB2A300881
:10158000AD023108031C310FAE023208031C320ACF
:10159000AF022A140310B20CB10CB00CA80BAF2A86
:1015A00029080319DB2AAA09AB09AC09AA0A0319FD
:1015B000AB0A0319AC0A2A08AD002B08AE002C08B0
:1015C000AF000800A001A41FEF2AA209A309A409E3
:1015D000A20A0319A30A0319A40AA001A00AA71FBB
:1015E000F92AA509A609A709A50A0319A60A031934
:1015F000A70A2708260425040319232BA101A10A01
:10160000A71B072B0310A50DA60DA70DFF2A270862
:101610002402031D112B26082302031D112B25086C
:101620002202031C1E2B2508A2022608031C260FDB
:10163000A3022708031C270AA4020310A70CA60C68
:10164000A50CA10B072B200803192E2BA209A30917
:10165000A409A20A0319A30A0319A40A2208A200D2
:101660002308A3002408A40008000030061B013052
:10167000F300F30DF30D43087306FB397306C30043
:101680004319462B831203138616492B8312031327
:101690008612003079230A128A15F30003134406D8
:1016A000F8397306C400013079230A128A15F30051
:1016B000F30DF30DF30D031344087306F7397306A6
:1016C000C400023079230A128A150313C5000430BE
:1016D00079230A128A15F300F30E031344087306E4
:1016E000EF397306C400441A772B0330CC07DE149D
:1016F0000800A000831603178C187A2B831203139B
:10170000200803178D003F3083168C050C1403103E
:101710000C180314003003180130F100F201831299
:101720000C0808008312A800BB30A900D9015A1583
:101730005A100430BF00C0002D08AC002908AA00D0
:10174000AA0AAB012A0884000A30A3002C080A1256
:101750008A119D27303E83178000AA032C08A4001D
:10176000A5010A30A600A7010A128A1122240A1232
:101770008A1583132408AC00AB0A02302B02031C29
:10178000A22B2E0884002F080A168A110020831627
:101790000317BD00831203132F08F3002E08F20075
:1017A000013E840073080318730A0A168A11002088
:1017B0000A128A1583160317BE00BB308312031367
:1017C000BD008130BE00EE2B4210C2104215C21186
:1017D00008004210C2104211C21508002808003A41
:1017E0000319E42B013A031D0800E92B0F30031302
:1017F000EC00C92FD401D5018312D21C0A2C520847
:10180000FD39D200520C0139003003190130831622
:10181000D400D5018316550854040319FD2FEC019B
:10182000FD2FD201D301F91A791B272C79081F3912
:10183000033A031D272C7908DF39F900790EF100EE
:10184000710C0139003003190130D200D301530863
:10185000520403192D2C0C304B2FD801D901F91A41
:10186000791F432C79081F39033A031D432C79084B
:10187000DF39F900790EF100710C013900300319DC
:101880000130D800D901590858040319492C0B30EC
:101890004B2FD601D701F91A791B5E2C79081F3915
:1018A000031D5E2C7908DF39F900790EF100710C07
:1018B0000139003003190130D600D701570856040A
:1018C0000319692C8312431D672C04304A2F0330FF
:1018D0004A2FD001D101F91A791F7E2C79081F39BE
:1018E000031D7E2C7908DF39F900790EF100710CA7
:1018F0000139003003190130D000D10151085004E2
:101900000319872C8312431DFD2F05304A2FCA016E
:10191000CB018312DE1C972C5E08FD39DE005E0CC5
:1019200001390030031901308316CA00CB01831638
:101930004B084A0403199F2CEC01EC0AFD2FC80147
:10194000C901F91A791BB52C79081F39023A031D10
:10195000B52C7908DF39F900790EF100710C0139E5
:10196000003003190130C800C901490848040319AF
:10197000BB2C0A304B2FCE01CF01F91A791FD12C85
:1019800079081F39023A031DD12C7908DF39F90093
:10199000790EF100710C0139003003190130CE00CD
:1019A000CF014F084E040319D72C09304B2FCC011F
:1019B000CD01F91A791BED2C79081F39043A031D62
:1019C000ED2C7908DF39F900790EF100710C01393D
:1019D000003003190130CC00CD014D084C0403192F
:1019E000FD2F0E304B2FE601E701F91A791F092D63
:1019F00079081F39043A031D092D7908DF39F900E8
:101A0000790EF100710C0139003003190130E60044
:101A1000E701670866040319FD2F0D304B2FE40121
:101A2000E5018312D41C1F2D5408FD39D400540C39
:101A300001390030031901308316E400E5018316F3
:101A4000650864040319262D02304B2FEA01EB01CF
:101A5000F91A791B3B2D79081F39031D3B2D790895
:101A6000DF39F900790EF100710C013900300319EA
:101A70000130EA00EB016B086A04031D672CE801E2
:101A8000E901F91A791B552D79081F39023A031D0E
:101A9000552D7908DF39F900790EF100710C013903
:101AA000003003190130E800E901690868040319EE
:101AB000FD2F08304B2FE201E3018312D41C6B2D64
:101AC0005408FD39D400540C013900300319013099
:101AD0008316E200E301831663086204031D242DCC
:101AE000DC01DD01F91A791B862D79081F39013ACD
:101AF000031D862D7908DF39F900790EF100710C8C
:101B00000139003003190130DC00DD015D085C049F
:101B100003198C2D07304B2FDA01DB01F91A791BE1
:101B2000A12D79081F39031DA12D7908DF39F9008E
:101B3000790EF100710C0139003003190130DA001F
:101B4000DB015B085A04031D672CE001E101F91A6F
:101B5000791BBB2D79081F39023A031DBB2D79086B
:101B6000DF39F900790EF100710C013900300319E9
:101B70000130E000E10161086004572DDE01DF0162
:101B80008312D41CCE2D5408FD39D400540C0139D5
:101B90000030031901308316DE00DF0183165F0871
:101BA0005E04031D242DC601C701F91A791BE82D17
:101BB00079081F39031DE82D7908DF39F900790EFE
:101BC000F100710C0139003003190130C600C70162
:101BD00047084604031D672CAC01AD01F91A791BB7
:101BE000022E79081F39023A031D022E7908DF39C7
:101BF000F900790EF100710C013900300319013040
:101C0000AC00AD012D082C04572DAA01AB018312A5
:101C1000D41C152E5408FD39D400540C0139003061
:101C2000031901308316AA00AB0183162B082A047E
:101C3000031D242DB001B101F91A791B302E79084A
:101C40001F39013A031D302E7908DF39F900790E6A
:101C5000F100710C0139003003190130B000B101FD
:101C600031083004031D8A2DAE01AF01F91A791B2A
:101C7000492E79081F39031D492E7908DF39F900EB
:101C8000790EF100710C0139003003190130AE00FA
:101C9000AF012F082E04031D672CA801A901F91A12
:101CA000791B632E79081F39023A031D632E7908C8
:101CB000DF39F900790EF100710C01390030031998
:101CC0000130A800A90129082804572DA201A30169
:101CD0008312D41C762E5408FD39D400540C0139DB
:101CE0000030031901308316A200A30183162308D4
:101CF0002204031D242DA001A101F91A791B902EA5
:101D000079081F39031D902E7908DF39F900790E03
:101D1000F100710C0139003003190130A000A1015C
:101D200021082004031D672CA601A701F91A791BBD
:101D3000AA2E79081F39023A031DAA2E7908DF3925
:101D4000F900790EF100710C0139003003190130EE
:101D5000A600A70127082604572DA401A501831278
:101D6000D41CBD2E5408FD39D400540C0139003068
:101D7000031901308316A400A50183162508240445
:101D8000031D242DB201B301F91A791BD82E79084D
:101D90001F39013A031DD82E7908DF39F900790E71
:101DA000F100710C0139003003190130B200B301A8
:101DB00033083204031D8A2DC001C101F91A791BB1
:101DC000F12E79081F39031DF12E7908DF39F9004A
:101DD000790EF100710C0139003003190130C00097
:101DE000C10141084004031D672CBE01BF01F91A5F
:101DF000791B0B2F79081F39023A031D0B2F790825
:101E0000DF39F900790EF100710C01390030031946
:101E10000130BE00BF013F083E04572DC401C5017B
:101E20008312D41C1E2F5408FD39D400540C0139E0
:101E30000030031901308316C400C501831645081C
:101E40004404031D242DC201C301F91A791B382F44
:101E500079081F39031D382F7908DF39F900790E09
:101E6000F100710C0139003003190130C200C301C7
:101E70004308420403194D2F83124508FF3EF10029
:101E8000FF3003180030F200460871067204031D8B
:101E9000672C06308316EC00FD2FBC01BD01F91A3A
:101EA000791B632F79081F39023A031D632F7908C4
:101EB000DF39F900790EF100710C01390030031996
:101EC0000130BC00BD013D083C04572DB601B701EF
:101ED0008312D41C762F5408FD39D400540C0139D8
:101EE0000030031901308316B600B7018316370896
:101EF0003604031D242DB401B501F91A791B902F66
:101F000079081F39031D902F7908DF39F900790E00
:101F1000F100710C0139003003190130B400B50132
:101F200035083404031D672CBA01BB01F91A791B6B
:101F3000AA2F79081F39023A031DAA2F7908DF3921
:101F4000F900790EF100710C0139003003190130EC
:101F5000BA00BB013B083A04031D592DB801B90171
:101F6000F91A791BC42F79081F39013A031DC42FB0
:101F70007908DF39F900790EF100710C0139003070
:101F800003190130B800B90139083804031D8A2D3E
:101F9000FD2F7808003A0319FD2F013A0319FA2B97
:101FA000033A0319112C013A0319F32C073A0319C8
:101FB0000F2D013A03195B2D033A0319BE2D013A87
:101FC0000319052E0F3A0319662E013A0319AD2E97
:101FD000033A03190E2F013A0319662F073A031922
:101FE000662F013A0319662F033A0319662F013A47
:101FF0000319662F1F3A0319662F83166C08080011
:10200000FE00FE1F082883137E18831700080800AF
:062010008A0004088200B2
:10216600080020346D3400342034733400342034B5
:10217600683400348611C310DE1408004E3441342E
:1021860064344134003408342834103408340134BB
:102196004310D9015A155A100800D9015A155A1078
:1021A600DE14C311080046344934523453347434AF
:1021B60000340D342E3402340F34583403340034D2
:1021C6004F3402340F3458340134463455344534D0
:1021D60052345A344134003464008001840A0406BF
:1021E600031900340406F02850344134553453346E
:1021F600453420344F344E340034D210C630840077
:1022060010300A168A1100200A168A11D1005211BE
:10221600080003342B3406340834223405340234DF
:10222600343402340F345834043403341F340A343B
:1022360008341C3409340234343402340F3458342C
:10224600083403343134083408342834073402346B
:10225600343402340F345834063464344534533439
:1022660048344134623449344C344934743441344A
:102276000034033401340C3407340A340B34083484
:1022860007340A340234343402340F3458340B34ED
:10229600033401340F3407340A340E340834073457
:1022A6000A340234343402340F3458340E340334CE
:1022B60001340E3407340A340D34083407340A3432
:1022C6000234343402340F3458340D3403340134B8
:1022D6000D3407340A340C34083407340A34023413
:1022E600343402340F3458340C34D410C7308400DC
:1022F60010300A168A1100200A168A11D3005411CA
:10230600C6010A128A11CC2A033401340B3407346D
:102316000A341034083407340A34023434340234AC
:102326000F345834103403340134103407340A346B
:102336000F34083407340A340234343402340F3488
:1023460058340F34033404340A3406345234043413
:10235600083401340B340234343402340F34583424
:102366000A34073425340534033425340534083457
:10237600373404340234343402340F3458340534D8
:10238600C3144212C2124213C2132D30CD00CE0026
:10239600CF00D0004D30BD008030BE0008000734AD
:1023A6001934093403341634093408341334083420
:1023B6000234343402340F345834093407340D34BB
:1023C600073403340D340734083410340634023429
:1023D600343402340F3458340734463455344E34CA
:1023E600433449344F344E34203445344E347434F7
:1023F600523441346434413400347E088A007F0804
:10240600820000220A168A118000840A04087D06CA
:1024160003190034FF0A0319FE0A042ABB34813467
:10242600043404340034F03400340034003400340E
:1024360000340034003400340034103400340034E6
:10244600003400340F345B340134433441344E34A9
:102456007434493464344134643420347434493433
:1024660045344D3450344F3453340034033400343F
:1024760003340034033400340334003403340034AA
:10248600D6341034F0341134283412343834383415
:1024960038343834003400340034003403345234D1
:1024A600043405344C3402340434553402340134D3
:1024B6004334023409345E3402340A343D3402347F
:1024C6000B34463402340C34403402340E343A347D
:1024D60003340F34493402348615DB01DC01DD0197
:1024E600861085101030CC00441A7B2A0330CC07A6
:1024F600C3144212C2124213C2135230CD005330DB
:10250600CE007430CF002030D0004D30BD0080307A
:10251600BE00080085119C2A5E1143134C1C972AA5
:102526008312031386149A2A831203138610431206
:1025360008004408073903190800013A03198F2ACD
:10254600033A03198F2A013A0319912A073A031D00
:102556000800912A25341234E234103451341234EE
:10256600DC3410340C341134B434113424341134C2
:10257600E134113418341134D2341134A534113401
:102586003C341134693411345A3411344B34113417
:1025960096341134873411348515EB2A5E154317AA
:1025A60044080739F100710C83120313031CDD2A5A
:1025B6008614DE2A86104316003086180130F10094
:1025C600F10EF10D43087106DF397106C3000800EC
:1025D6004408073903190800013A0319D12A033AB6
:1025E6000319D12A013A0319D32A073A031D080011
:1025F600D32AF701F801F9018313513084006330BF
:102606000A168A11EF2083160317C301C401C501F8
:10261600C601C701C8015130FD001230FE0011305D
:10262600FF003D3084000A168A1104228317C33046
:10263600FD001230FE003930FF00AB3084000A1670
:102646008A1104220A168A1183010A128A111F2886
:10265600D410C730840010300A168A110020D30027
:102666005411C31144084706F8394706C400073910
:10267600F20000300A128A1156220A168A11432BDA
:1026860083120313D410C730840010300A168A113F
:1026960000200A168A11D3005411C601C60A031077
:1026A600460DB53E840083170008A300840A00087F
:1026B600A4000A128A11542B83160F168F160F17B1
:1026C600831217109710171197111D109D101D11C9
:1026D6009D11901010159011101690161014DC30E4
:1026E6008E000B308F008316811181120114811424
:1026F6000115F8308312810083160317081088101D
:102706000811881108120313811315130317880182
:10271600890103138610861206128611851185100B
:102726008710051207108713851285138711051365
:102736000712071387120711051405158915FF30AF
:102746008312850086008700890086108612061689
:1027560086118511851087100512071087138316B9
:102766000C1483128B160B178B170800831603178E
:102776009400C42507151E2DC425851685178715B3
:1027860005170716071787120800C425851685172B
:10279600871505130716071787160800C42585121F
:1027A6008513871105130712071387160800C4251A
:1027B600851685138711051707160717871608004C
:1027C600C425851285138715051307120717871267
:1027D6000800C425851285138711051307160717E8
:1027E60087120800C4258516851387110517071655
:1027F600071387120800C42585128517871105134C
:102806000716071387120800C42585128517871136
:1028160005130712071387120800C42585128513AE
:10282600871105170716071387160800C425851292
:102836008513871105130712071387120800C4258D
:1028460085128513871105130716071387120800CB
:10285600C4258512851387110513071207178712DA
:102866000800C4258512851387110517071207135B
:1028760087120800C42585168517871105130712C8
:10288600071387120800C4258516851787150513B3
:102896000712071787120800C425851285178715A2
:1028A60005130712071387160800C4258516851316
:1028B600871105130712071787120800C425851606
:1028C6008517871105130712071787120800C425F5
:1028D600851285138715051307120713871208003B
:1028E600C425851285178715051307120713871246
:1028F6000800C425851285178715051707120713C3
:1029060087120800C4258516851387110517071237
:10291600071387120800C425851685178711051722
:102926000712071387120800C42585168517871115
:1029360005170716071787160800C4258516851379
:10294600871105130712071787160800C425851671
:102956008517871505130712071387160800C42560
:10296600851685178711051707120717871208009E
:10297600C4258512851387110517071207138716B5
:102986000800C42585128513871505170712071336
:1029960087120800C42585128513871105170716A7
:1029A600071387120800C42585168517871505178E
:1029B6000712071787120800C42585128517871581
:1029C60005170712071387160800C42585168517ED
:1029D600871505130712071387120800C4258516E5
:1029E6008517871105130712071787160800C425D0
:1029F6008516851387110513071207138716080016
:102A0600C425851685138711051307160713871224
:102A16000800C4258512851787150513071607179D
:102A260087120800C425851685178715051707160A
:102A3600071787160800831603171408233A031985
:102A46000C2D0E3A0319BF2B1D3A0319D12B013A4F
:102A56000319DA2B033A0319E32B013A0319EC2B7A
:102A6600073A0319F52B013A0319FE2B033A03190A
:102A7600072C013A0319102C0F3A0319192C013AA5
:102A86000319222C783A0319342C023A03194F2CD5
:102A9600073A0319582C013A0319732C033A031900
:102AA6007C2C013A0319072C0F3A0319852C013A9D
:102AB6000319DA2B033A0319A02C063A0319A92C99
:102AC600013A0319BB2C033A0319BB2C013A03192B
:102AD600D12B1F3A0319C42C023A0319DF2C013AF1
:102AE6000319FE2B073A0319E82C013A0319FA2CAD
:102AF6000C3A0319032D033A0319E32B053A03197C
:102B0600C82B3E3A03192B2C033A03193D2C013AE4
:102B16000319462C073A0319582C013A03196A2C53
:102B2600033A03197C2C013A0319222C0F3A031994
:102B36008E2C013A0319972C053A0319DA2B013A20
:102B46000319B22C033A0319B22C013A0319612C6A
:102B56001F3A0319C42C013A0319CD2C033A031961
:102B6600D62C013A0319FE2B073A0319E82C013A31
:102B76000319F12C033A0319F12C0F3A0319032D0B
:102B8600152D831203130800FA278B1A0B1DB62E78
:102B9600F830810087100512071087134108103A94
:102BA6000319C101043041020318812E3F08410771
:102BB600FD27A000A101A10D2108803AA2008030C6
:102BC6002202031DE82D04302002031C062EFA27DC
:102BD60041083F07FD27A000A101A10DFA274008E3
:102BE600033EFD27A200003003180130A30023088E
:102BF600803AA4002108803A2402031D042E2008EE
:102C0600220203180D2E20300A168A11B9230A163D
:102C16008A11652EFA2741083D07FD27A000FA27ED
:102C26003E080318013EFD27A100FA273F08FD27AD
:102C36002007A20021080318013EA300FC3022074A
:102C46008400FF300318003023070A168A1100207B
:102C56000A168A11B9230A168A11652EFA27421C0A
:102C6600372EF708031D812E421A3B2E07153C2EE0
:102C760007118714812EFA27C21C442EF708031D5C
:102C8600812EC21A482E0715492E07110516812EC8
:102C9600FA27421D512EF708031D812E421B552E81
:102CA6000715562E07110714812EFA27C21D5E2E10
:102CB600F708031D812EC21B622E0715632E07110E
:102CC6008717812EFD27A101FA274108033CFD271E
:102CD600A000031CA1037D2E2008003A0319312E03
:102CE600013A03193E2E033A03194B2E013A0319F2
:102CF600582E812E2108003A03196F2EFA27C10A91
:102D0600003005180130FD2795000030F0260A1620
:102D16008A110030FA2705190130FD279500013088
:102D2600F0260A168A110030FA2789190130FD2784
:102D360095000230F0260A168A110030FA27061886
:102D46000130FD2795000330F0260A168A1100305F
:102D5600FA2706190130FD2795000430F0260A16D9
:102D66008A11FA270B1183160C1CE42E83120C1CF5
:102D7600E42EDC308E000B308F0000303B270A1625
:102D86008A1101303B270A168A1102303B270A16A0
:102D96008A1103303B270A168A1104303B270A168C
:102DA6008A11003077270A168A11A901A90AAA01F1
:102DB60077080319E02EA901AA012908F700FA27C6
:102DC6000C10FD272808FE0027088A002608840024
:102DD60025088300FF0E7F0E090094000310140DD2
:102DE600AC3E840083170008003A03100319002F35
:102DF600140DAC3E840080030800140DAB3E840025
:102E060000081506FE39150680000310140DAB3EAA
:102E160084000310140DAB3E001C1A2F840080188A
:102E2600172FF9167917252F0310140DAB3E8400C2
:102E36000310140DAB3E0018332F8400801C302F76
:102E4600F91679130310140DAC3E84001930800076
:102E560079081406E0391406F9000310140DAB3E88
:102E660084008317001C392F801408008010080086
:102E7600FD2795000310150D523E8400831300199B
:102E860008000310150D513E84000008003A03198E
:102E960008000310150D513E840080030310150D24
:102EA600513E84008008031D08000310150D523E94
:102EB600840080140310150D523E8400001C080087
:102EC6001508C63E840010300318013E0A168A1102
:102ED60000200A168A1194000310150D513E840035
:102EE60014088313800008009F009A0003109A0DAF
:102EF60003101A0D5E3E8400001908001F089A0090
:102F060003109A0D03101A0D5B3E840000089B0007
:102F1600840A00089C00840A00089D00803A9E00EE
:102F260080301E02031D9D2F00301C02031D9D2FA5
:102F360001301B02031C08001F089A0003109A0D9B
:102F460003101A0D5B3E8400FF308007840A0318C5
:102F5600013E031D8007840AFF300318013E8007E7
:102F66001F089A0003109A0D03101A0D5B3E840089
:102F760000089B00840A00089C00840A00089D0043
:102F86001C041B04031D08001F089A0003109A0D59
:102F960003101A0D5E3E840080141F089A00031069
:102FA6009A0D03101A0D5E3E8400001C08001F08CF
:102FB6001F071F07C33E8400831700089A00840A70
:102FC60000089B00840A00089C001F089D0003104F
:102FD6009D0D03101D0D5B3E84001A0883138000AF
:102FE600840A1B088000840A1C08800008008312DB
:0A2FF60003130800831603170800F8
:08400000200011000200220063
:04400E00042FFF3E3E
:1042000000000000020000000100000000000000AB
:10421000000000000000000000000000000000009E
:104220000000000020000000000028000000000046
:10423000000000000000000000000000000000007E
:10424000000000000000000000000000000000006E
:10425000000000000000000000000000000000005E
:10426000000000000000000000000000000000004E
:10427000000000000000000000000000000000003E
:10428000000000000000000000000000000000002E
:10429000000000000000000000000000000000001E
:1042A000000000000000000000000000000000000E
:1042B00000000000000000000000000000000000FE
:1042C00000000000000000000000000000000000EE
:1042D00000000000000000000000000000000000DE
:1042E00000000000000000000000000000000000CE
:1042F00000000000000000000000000000000000BE
:1043000000000000000000000000000000000000AD
:10431000000000000000000000000000000000009D
:10432000000000000000000000000000000000008D
:10433000000000000000000000000000000000007D
:10434000000000000000000000000000000000006D
:10435000000000000000000000000000000000005D
:10436000000000000000000000000000000000004D
:10437000000000000000000000000000000000003D
:10438000000000000000000000000000000000002D
:10439000000000000000000000000000000000001D
:1043A000000000000000000000000000000000000D
:1043B00000000000000000000000000000000000FD
:1043C00000000000000000000000000000000000ED
:1043D00000000000000000000000000000000000DD
:1043E00000000000000000000000000000000000CD
:1043F00000000000000000000000000000000000BD
:00000001FF
