:1000000000000A128A111228FF0003088316031742
:10001000A5000408A6000A08A7007E08A8000A1682
:100020008A11C72D0A168A11FC2A08000334583495
:10003000043405345234023404344F34023401346D
:100040005E3402340934403402340A344334023416
:100050000B34493402340C343A3402340E343D3417
:1000600003340F34463402340A168A115F23F9012F
:100070000A168A1135210A128A11202193010A12C7
:100080008A15F6230A128A110317900071280310AB
:10009000790D673E840008300318013EBB000A1644
:1000A0008A110020BA00840A0319BB0A3B080A1609
:1000B0008A1100200A128A11BB002021130813079D
:1000C000130723213A0784003B080318013E0A1650
:1000D0008A1100200A128A112021100603199A2879
:1000E000930A0310790D673E840008300318013E1F
:1000F0002321BB000A168A110020BA00840A0319C2
:10010000BB0A3B080A168A1100200A128A11BB009A
:10011000202113081307130723213A0784003B0803
:100120000318013E0A168A1100200A128A110F3A9A
:10013000031D47280310790D673E8400083003181B
:10014000013E2321BB000A168A110020BA00840A4E
:100150000319BB0A3B080A168A1100200A128A11E9
:10016000BB00202113081307130723213A07BC0003
:100170003B080318013EBD0001303C0784003D08E8
:1001800003183D0A0A168A1100200A128A15002057
:100190000310790D673E840008300318013EBB0050
:1001A0000A168A110020BA00840A0319BB0A3B0808
:1001B0000A168A1100200A128A11BB002021130896
:1001C0001307130723213A07BC003B080318013E1D
:1001D000BD0002303C0784003D0803183D0A0A16A2
:1001E0008A1100200A128A11F9002021910192013E
:1001F0002321DB1C06295B08FD39DB005B0C013980
:1002000000300319013020219100920120211208B1
:100210001104031938282321C00A4108043EBA00FA
:10022000003003180130BB00803ABC0080303C0233
:10023000031D1C2940083A0203183828C001382839
:10024000831603170800831203130800D510B1307A
:10025000840010300A168A1100200A128A11D40074
:100260005511C701CC2AD510B130840010300A16C0
:100270008A1100200A128A11D4005511C4114808AD
:10028000F100F10E45087106EF397106C500A101B4
:10029000451AA10A043053220A128A114F29FD2758
:1002A000D510B130840010300A168A1100200A12CD
:1002B0008A11D4005511DC01DD01DE0186108510A4
:1002C000C7010310470DB53E840083170008A30043
:1002D000840A0008A400542B023048020318C80303
:1002E000762928304802031CC80A7629D510B13077
:1002F000840010300A168A1100200A128A11D400D4
:100300005511C4157908083A031D89290310460CB4
:10031000C800DA015B155B100430C000C100BB30BF
:10032000A8004808AA002808A9000330A907AB01C3
:10033000290884000A30A3002A089D270A128A117E
:10034000303E83178000A9032A08A400A5010A30C3
:10035000A600A70122240A128A1183132408AA00E6
:10036000AB0A04302B02031C9829BB30BE0081303D
:10037000BF004314C3144315C3150800D510B13092
:10038000840010300A168A1100200A128A11D40043
:100390005511C4110310480DC6004608A1000230D3
:1003A00053220A128A11D429FD27D510B1308400B6
:1003B00010300A168A1100200A128A11D400551131
:1003C000DC01DD01DE01861085101030CD00451AFC
:1003D000EB290330CD070230C7000310470DB53EAF
:1003E000840083170008A300840A0008A400542B8B
:1003F000D510B130840010300A168A1100200A127C
:100400008A11D4005511C4114908F4004A08F500B6
:100410004B08F60002300310F40DF50DF60DFF3E0B
:10042000031D0B2A1030F700760DF60CF50CF40CBA
:10043000F70B142A7408A100470847074707103E26
:1004400053220A128A11FD274908F4004A08F500D0
:100450004B08F60002300310F40DF50DF60DFF3ECB
:10046000031D2B2A0830F700760DF60CF50CF40C62
:10047000F70B342A7408A100470847074707113EC5
:1004800053220A128A11FD274908F4000310F40DC3
:100490000310740DA100470847074707123E532277
:1004A0000A128A11CC2AA000831603178C18542A2A
:1004B000FD27200803178D000313210803178C0064
:1004C0003F3083168C050310FD278B1B03148B1301
:1004D000831603170C1555308D00AA308D008C142F
:1004E0000C11031C0800FD278B1708004808043A6C
:1004F000031D7C2AC8017D2AC80A7E2AD510B13086
:10050000840010300A168A1100200A128A11D400C1
:100510005511C4157908063A031D912A4508073973
:10052000C8004808003A0319A22A013A0319A72A69
:10053000033A0319AC2A013A0319B62A073A031DF4
:100540000800B12ABA30A3001030A400542BE630C2
:10055000A3001030A400542BEF30A3001030A400EF
:10056000542B1D30A3001130A400542BD730A3000E
:100570001030A400542BD510B130840010300A166E
:100580008A1100200A128A11D4005511C70A47089F
:1005900046060319C701CC2A3D2B74308316031776
:1005A000BB006F30BC006E30BD005F30BE00C101CB
:1005B0000310FD27470CAC00BF30A800A80AAB0110
:1005C000280884000A30A3002C089D270A128A11EB
:1005D000303E83178000A8032C08A400A5010A3030
:1005E000A600A70122240A128A1183132408AC0052
:1005F000AB0A02302B0203184F2BE02A743083160B
:100600000317BB006F30BC006630BD00BE005F301A
:10061000BF00C201FD274708FF3EA400FF300318BA
:100620000030A5000230A600A70122240A128A1178
:1006300083132408AA00C030A900A90AAD01290823
:1006400084000A30A3002A089D270A128A11303E2E
:1006500083178000A9032A08A400A5010A30A60078
:10066000A70122240A128A1183132408AA00AD0AC2
:1006700002302D0203184F2B1F2BFD27470801398D
:10068000F200F3014B2B7208003A0319CD2A013A0C
:100690000319FE2A4F2B7308003A0319432BBB3072
:1006A000A3008130A400542BDB10B4308400103040
:1006B0000A168A110020DA005B115B14C0012408BD
:1006C000BF002308BE002408A2002308A1002108BF
:1006D000840022080A168A1100200A128A110038A2
:1006E0000319762BA10A0319A20A672B23082102FA
:1006F000A000C1004310C3104311C3114312C31221
:100700004313C313080044144D08103A031D8A2BE9
:100710004608992B4D08F03EA400FF300318003026
:10072000A5000330A600A70122240A128A11831310
:100730002408FF3EAE000C2C743083160317BB0058
:100740006F30BC006E30BD005F30BE00C1010310D1
:10075000FD272E0CAC00BF30A800A80AAD01280868
:1007600084000A30A3002C089D270A128A11303E0B
:1007700083178000A8032C08A400A5010A30A60056
:10078000A70122240A128A1183132408AC00AD0A9F
:1007900002302D0203181D2CAF2B74308316031763
:1007A000BB006F30BC006630BD00BE005F30BF00D4
:1007B000C201FD272E08FF3EA400FF3003180030C1
:1007C000A5000230A600A70122240A128A11831371
:1007D0002408AB00C030A900A90AAA012908840096
:1007E0000A30A3002B089D270A128A11303E831776
:1007F0008000A9032B08A400A5010A30A600A701C8
:1008000022240A128A1183132408AB00AA0A023098
:100810002A0203181D2CEE2B2E080139F200F301D9
:10082000192C7208003A03199C2B013A0319CD2B9D
:100830001D2C7308003A0319112CBB30A300813022
:10084000A400542BA101A71F2C2CA609A709A60AB6
:100850000319A70AA101A10AA51F352CA409A509FE
:10086000A40A0319A50A0130A106A201A3012708C1
:10087000260403195A2CA001A00A0310A71B442C1C
:10088000A60DA70D3C2C0310A20DA30D27082502D1
:10089000031D4C2C26082402031C562C2608A402F7
:1008A0002708031CA503A50222140310A70CA60CFD
:1008B000A00B432C21080319622CA209A309A20A48
:1008C0000319A30A2308A5002208A4000800441E57
:1008D000782C4D18C41A6F2C78187A2C7D2C440E65
:1008E000B100310C0139B200320C03187A2C7D2C86
:1008F0004D1C7D2CFD2785147F2CFD278510441C65
:10090000C41808000130B100B201B3015C08AB00AB
:100910005D08AC005E08AD000430AE00AF01B00170
:100920000A128A158B2283132B08B1072C0803188F
:100930002C0FB2072D0803182D0FB3073108B40090
:100940003208B5003308B6003408AB003508AC00F7
:100950003608AD001030AE000E30AF00B0010A1204
:100960008A158B222B08B9000130B100B201B30106
:100970005C08AB005D08AC005E08AD000430AE0062
:10098000AF01B0010A128A158B222B08B1072C087F
:1009900003182C0FB2072D0803182D0FB3073108C9
:1009A000A0003208A1003308A2001030A3000E30CE
:1009B000A400A5010A128A15E82283132008B400B6
:1009C0002108B5002208B6003408AB003508AC0099
:1009D0003608AD003C30AE00AF01B0010A128A15F6
:1009E0008B222B08B8000130B100B201B3015C08C2
:1009F000AB005D08AC005E08AD000430AE00AF0196
:100A0000B0010A128A158B222B08B1072C08031893
:100A10002C0FB2072D0803182D0FB3073108A000C3
:100A20003208A1003308A2003C30A300A401A501B4
:100A30000A128A15E8220A128A1183132008B700C5
:100A40000A303902031C322D4E30AA000230AB00AE
:100A5000390882250A128A115030AA000230AB00F0
:100A60003808682D0A30390203185B2D39084E30DA
:100A7000AA0003195D2DAB01AB0A390882250A12C1
:100A80008A114F30AA000230AB00380882250A12C2
:100A90008A115130AA00AB01AB0A0A30A000370816
:100AA000BA270A128A1182250A128A114312C31622
:100AB0004313C3176F2D4E30AA000230AB00380825
:100AC00082250A128A115030AA000230AB00370882
:100AD00082250A128A114312C3124317C313441FFB
:100AE000762D4314C3144315C3157A2D4310C31038
:100AF0004311C3110430C000C1004E30BE0080302D
:100B0000BF000800A9002B03AA07A8012B08280290
:100B1000031808002A0884000A30A30029089D272A
:100B20000A128A11303E83138000AA032908A40008
:100B3000A5010A30A600A70122240A128A1124085E
:100B4000A900A80A862DD510B130840010300A16ED
:100B50008A110020D40055110530443E84008313CF
:100B60000008AB00840A0008AC00840A0008AD004D
:100B70001030AE000E30AF00B0010A128A158B2281
:100B80002B088316A7000530443E8400000883121A
:100B9000A000840A0008A100840A0008A200103006
:100BA000A3000E30A400A5010A128A15E8228313BF
:100BB0002008AB002108AC002208AD003C30AE009C
:100BC000AF01B0010A128A158B222B088316A800E8
:100BD0000530443E840000088312A000840A000807
:100BE000A100840A0008A2003C30A300A401A501D2
:100BF0000A128A15E8220A128A1183132008831622
:100C0000A9006B2E0A308312A300831627089D27A4
:100C10000A128A11093A031D0F2E09301E2E83165F
:100C2000A70A7E2E0A308312A00083162708BA274F
:100C30000A128A11093A031D212E5A308316A7027F
:100C40007E2E0A308316A7077E2E0A308312A30059
:100C5000831628089D270A128A11093A031D322E8D
:100C60000930412E8316A80A7E2E0A308312A00076
:100C700083162808BA270A128A11053A031D442E42
:100C800032308316A8027E2E0A308316A8077E2EE5
:100C90000A308312A300831629089D270A128A119D
:100CA000093A031D552E0930642E8316A90A7E2E9B
:100CB0000A308312A00083162908BA270A128A1163
:100CC000053A031D672E32308316A9027E2E0A30A4
:100CD0008316A9077E2E79080B3A0319022E073ACC
:100CE0000319122E013A0319252E033A0319352E42
:100CF000013A0319482E1F3A0319582E2708831268
:100D0000A000A101A2011030A3000E30A400003009
:100D1000A501D6270A128A112008B1002108B200C5
:100D20002208B300831629088312B400B501B60166
:100D3000831628088312A000A101A2013C30A30061
:100D4000A401A501D6270A128A1183132008B4072B
:100D500021080318210FB50722080318220FB60730
:100D600083123408B10735080318350FB207360867
:100D70000318360FB3073108C9003208CA00330818
:100D8000CB00C92E8316A401A40A792F8316A401CF
:100D9000792F79080B3A0319C62E073A0319C22E88
:100DA000013A0319C62E033A0319C22E013A031958
:100DB000C62E1F3A0319C22E792F0530443E8400F7
:100DC00000088312AB00840A0008AC00840A000803
:100DD000AD001030AE000E30AF00B0010A128A151F
:100DE0008B220A128A112B088316A00083122C086A
:100DF0008316A10083122D088316A2008312B1006E
:100E0000310DB100031CB103B10231098316A300F7
:100E1000A930A5001030772F0530443E840000082B
:100E20008312A000840A0008A100840A0008A2001E
:100E30001030A3000E30A400A5010A128A15E82282
:100E400083132008AB002108AC002208AD003C3021
:100E5000AE00AF01B0010A128A158B220A128A1164
:100E60002B088316A00083122C088316A10083127E
:100E70002D088316A2008312B100310DB100031CAE
:100E8000B103B10231098316A300A330A5001030CD
:100E9000772F0530443E840000088312A000840AA6
:100EA0000008A100840A0008A2003C30A300A401AD
:100EB000A5010A128A15E8220A128A118313200852
:100EC0008316A000831221088316A1008312220832
:100ED0008316A2008312B100310DB100031CB103CF
:100EE000B10231098316A300A630A5001030A60078
:100EF0008C2F79080B3A0319DD2E073A0319DD2EE2
:100F0000013A03190C2F033A03190C2F013A031964
:100F1000492F1F3A0319492F831620088312AD0069
:100F2000831626088312AF00831625088312AE00AD
:100F3000831624080A128A15922B8312A000083007
:100F4000A100A2012008F10007300310F10CFF3EC0
:100F50000310031DA62F220D7104A2000310A00D83
:100F600023082202031CB62F2308A202A10BA22FE2
:100F700022080800F100F301831220080319D42F7E
:100F8000F201F20A0310A01BC82FA00DC12F0310FD
:100F9000F30D20087102031CD12F2008F1027314F5
:100FA0000310A00CF20BC72F73080800F101F20127
:100FB000F301201CE92F2308F1072408031103186B
:100FC000240A031DF207250803110318250A031D2F
:100FD000F3070310A30DA40DA50D0310A20CA10C83
:100FE000A00C220821042004031DD92F7108A000A1
:100FF0007208A1007308A2000800831203130800FE
:10100000FE0008308A007E08820700000A128A115A
:10101000BB2A0A128A11F8290A128A1594290A127F
:101020008A11A32D0A128A1126290A128A11762AF8
:101030000A128A1176290A168A112B2B0A128A1192
:10104000BE290A128A116C290A128A1171290A16FC
:101050008A11D1280A168A11AA2A0A128A1133295A
:101060000A168A11A32A0A168A11AC280A168A11AE
:10107000432B0A128A117E2A0A128A11D4290A16CF
:101080008A11CF2A0A168A11652A0A168A11B528EA
:101090000A128A11832B0A128A11672C0A168A11E6
:1010A000832A0A128A1115280A168A1144290A1657
:1010B0008A11A1280A128A15352B0A128A114F2982
:0C10C0000A168A1129290A128A158928AB
:1010CE000A341234C534103416340034BF3410349C
:1010DE00113411349E341134F9341034AD341134CA
:1010EE0005341134CB341134BC341134533411342F
:1010FE0071341134DA341134623411348F341134C2
:10110E00803411348E21C301C401C50191214D08D3
:10111E0079230A128A150313A600A501A401240837
:10112E008E21C304912125088E21C4049121260805
:10113E008E21C50491214D0A79230A128A150313B3
:10114E00A400A501A6012508A6002408A500A40157
:10115E0024088E21C304912125088E21C4049121D7
:10116E0026088E21C50491214D08023E79230A12CC
:10117E008A150313A400A501A6018E21C304912193
:10118E0025088E21C404912126088E21C5049121A3
:10119E00451EEC280330CD074608A000A101033000
:1011AE00A200A3013C210A128A1583132008103EC7
:1011BE00A40021080318013E003EA5004D08240698
:1011CE002504031D1B2910301A294D08F03EA000DE
:1011DE00FF3003180030A1000630A200A3015521F4
:1011EE000A128A15831321082004031901290330DA
:1011FE00CD0203290630CD074608A000A101033019
:10120E00A200A3013C210A128A152008103EA40058
:10121E0021080318013E003EA5004D0824062504B2
:10122E00031D1B291330CD008E21450844044304B1
:10123E00912103193A29DF108E2143089121DC00F8
:10124E008E2144089121DD008E2145089121DE007A
:10125E005F11441A08004D1C37299121861408008D
:10126E00912186100800DF140800F101F201201C04
:10127E0046292208F1070318F20A2308F207031081
:10128E00A20DA30D0310A10CA00C21082004031D18
:10129E003E297208A1007108A0000800F101A11FEB
:1012AE005F29A009A109A00A0319A10AF101F10AF7
:1012BE00A31F6629A209A309A20A0319A30A2308D8
:1012CE00220403198529F201F20AA31B72290310C5
:1012DE00A20DA30D6B2923082102031D78292208D4
:1012EE002002031C81292208A0022308031CA1034B
:1012FE00A1020310A30CA20CF20B722971080319A0
:10130E000800A009A109A00A0319A10A0800831662
:10131E0003170800831203130800D510B1308400A0
:10132E0010300A168A1100200A128A15D40055119F
:10133E00C415F929C901CA01CB0147084707470758
:10134E00103E79230A128A150313B300B201B101BC
:10135E003108C9043208CA043308CB0447084707CA
:10136E004707113E79230A128A150313B100B20101
:10137E00B3013208B3003108B200B1013108C9041B
:10138E003208CA043308CB04470847074707123E02
:10139E0079230A128A150313B100B201B301C904ED
:1013AE003208CA043308CB040530443E840083134C
:1013BE000008AB00840A0008AC00840A0008AD00E7
:1013CE000430AE00AF01B0018B220A128A152B0831
:1013DE00C9002C08CA002D08CB00B4016D2AB40137
:1013EE00B40A6D2A79080A3A0319A129013A031998
:1013FE00F629073A0319F429013A0319F629033A93
:10140E000319F429013A0319F6291F3A0319F4298D
:10141E006D2A0530443E840083130008AB00840A15
:10142E000008AC00840A0008AD001030AE000E308B
:10143E00AF00B0018B220A128A152B08B700A93013
:10144E00B50010306B2A0530443E8400831300082B
:10145E00A000840A0008A100840A0008A20010302F
:10146E00A3000E30A400A501E8220A128A158313E8
:10147E002008AB002108AC002208AD003C30AE00C5
:10148E00AF01B0018B220A128A152B08B700A330C8
:10149E00B50010306B2A0530443E840083130008DB
:1014AE00A000840A0008A100840A0008A2003C30B3
:1014BE00A300A401A501E8220A128A1583132008AD
:1014CE00B700A630B5001030B600832A79080A3A64
:1014DE000319102A013A0319102A073A03192A2A66
:1014EE00013A03192A2A033A0319522A013A031917
:1014FE00522A1F3A0319102A3708AD003608AF00DA
:10150E003508AE003408922BA701B01F982AAE09F9
:10151E00AF09B009AE0A0319AF0A0319B00AA70141
:10152E00A70AAD1FA42AAB09AC09AD09AB0A031972
:10153E00AC0A0319AD0A0130A706A801A901AA0138
:10154E0030082F042E040319D62AA601A60A03106A
:10155E00B01BB62AAE0DAF0DB00DAD2A0310A80DFF
:10156E00A90DAA0D30082D02031DC32A2F082C0227
:10157E00031DC32A2E082B02031CD12A2E08AB02F0
:10158E002F08031C2F0FAC023008031C300AAD02CB
:10159E0028140310B00CAF0CAE0CA60BB52A2708FE
:1015AE000319E12AA809A909AA09A80A0319A90A6F
:1015BE000319AA0A2808AB002908AC002A08AD00B6
:1015CE000800F101A21FF52AA009A109A209A00A8B
:1015DE000319A10A0319A20AF101F10AA51FFF2A94
:1015EE00A309A409A509A30A0319A40A0319A50AA4
:1015FE002508240423040319292BF201F20AA51B42
:10160E000D2B0310A30DA40DA50D052B25082202ED
:10161E00031D172B24082102031D172B230820025C
:10162E00031C242B2308A0022408031C240FA10250
:10163E002508031C250AA2020310A50CA40CA30C5A
:10164E00F20B0D2B710803190800A009A109A209BC
:10165E00A00A0319A10A0319A20A08000030061BEA
:10166E000130F300F30DF30D44087306FB397306D6
:10167E00C4004419462B831203138616492B83127A
:10168E0003138612003079230A128A15F30003130E
:10169E004506F8397306C500013079230A128A15FA
:1016AE00F300F30DF30DF30D031345087306F7392D
:1016BE007306C500023079230A128A150313C60079
:1016CE00043079230A128A15F300F30E031345082A
:1016DE007306EF397306C500451A772B0330CD0715
:1016EE00DF140800A000831603178C187A2B8312C0
:1016FE000313200803178D003F3083168C050C143E
:10170E0003100C180314003003180130F100F2011D
:10171E0083120C0808008312A800BB30A900DA015E
:10172E005B155B100430C000C1002D08AC00290809
:10173E00AA00AA0AAB012A0884000A30A3002C08CA
:10174E000A128A119D27303E83178000AA032C08A7
:10175E00A400A5010A30A600A7010A128A112224AC
:10176E000A128A1583132408AC00AB0A02302B022E
:10177E00031CA22B2E0884002F080A168A110020A3
:10178E0083160317BD00831203132F08F3002E08D0
:10179E00F200013E840073080318730A0A168A11B8
:1017AE0000200A128A1583160317BE00BB3083125F
:1017BE000313BE008130BF00EE2B4310C310431540
:1017CE00C31108004310C3104311C31508002808A5
:1017DE00003A0319E42B013A031D0800E92B0F30E0
:1017EE000313EC00C92FD401D5018312D31C0A2C8C
:1017FE005308FD39D300530C013900300319013061
:10180E008316D400D5018316550854040319FD2FF1
:10181E00EC01FD2FD201D301FA1A7A1B272C7A087C
:10182E001F39033A031D272C7A08DF39FA007A0E86
:10183E00F100710C0139003003190130D200D301CF
:10184E005308520403192D2C0C304B2FD801D901FB
:10185E00FA1A7A1F432C7A081F39033A031D432CB8
:10186E007A08DF39FA007A0EF100710C0139003076
:10187E0003190130D800D901590858040319492C0D
:10188E000B304B2FD601D701FA1A7A1B5E2C7A0831
:10189E001F39031D5E2C7A08DF39FA007A0EF1002B
:1018AE00710C0139003003190130D600D7015708E9
:1018BE0056040319692C8312441D672C04304A2FD9
:1018CE0003304A2FD001D101FA1A7A1F7E2C7A08E2
:1018DE001F39031D7E2C7A08DF39FA007A0EF100CB
:1018EE00710C0139003003190130D000D1015108BB
:1018FE0050040319872C8312441DFD2F05304A2FE7
:10190E00CA01CB018312DF1C972C5F08FD39DF0063
:10191E005F0C01390030031901308316CA00CB0168
:10192E0083164B084A0403199F2CEC01EC0AFD2F79
:10193E00C801C901FA1A7A1BB52C7A081F39023A66
:10194E00031DB52C7A08DF39FA007A0EF100710CFE
:10195E000139003003190130C800C9014908480493
:10196E000319BB2C0A304B2FCE01CF01FA1A7A1F66
:10197E00D12C7A081F39023A031DD12C7A08DF398F
:10198E00FA007A0EF100710C0139003003190130A2
:10199E00CE00CF014F084E040319D72C09304B2F20
:1019AE00CC01CD01FA1A7A1BED2C7A081F39043AB4
:1019BE00031DED2C7A08DF39FA007A0EF100710C56
:1019CE000139003003190130CC00CD014D084C0413
:1019DE000319FD2F0E304B2FE601E701FA1A7A1F7D
:1019EE00092D7A081F39043A031D092D7A08DF39AB
:1019FE00FA007A0EF100710C013900300319013032
:101A0E00E600E701670866040319FD2F0D304B2F22
:101A1E00E401E5018312D51C1F2D5508FD39D500B3
:101A2E00550C01390030031901308316E400E5012D
:101A3E008316650864040319262D02304B2FEA0124
:101A4E00EB01FA1A7A1B3B2D7A081F39031D3B2D29
:101A5E007A08DF39FA007A0EF100710C0139003084
:101A6E0003190130EA00EB016B086A04031D672CB1
:101A7E00E801E901FA1A7A1B552D7A081F39023A44
:101A8E00031D552D7A08DF39FA007A0EF100710C1C
:101A9E000139003003190130E800E90169086804D2
:101AAE000319FD2F08304B2FE201E3018312D51CE1
:101ABE006B2D5508FD39D500550C01390030031931
:101ACE0001308316E200E301831663086204031DEE
:101ADE00242DDC01DD01FA1A7A1B862D7A081F39B6
:101AEE00013A031D862D7A08DF39FA007A0EF100CD
:101AFE00710C0139003003190130DC00DD015D0885
:101B0E005C0403198C2D07304B2FDA01DB01FA1A16
:101B1E007A1BA12D7A081F39031DA12D7A08DF39F2
:101B2E00FA007A0EF100710C013900300319013000
:101B3E00DA00DB015B085A04031D672CE001E101AA
:101B4E00FA1A7A1BBB2D7A081F39023A031DBB2DD8
:101B5E007A08DF39FA007A0EF100710C0139003083
:101B6E0003190130E000E10161086004572DDE0128
:101B7E00DF018312D51CCE2D5508FD39D500550C2D
:101B8E0001390030031901308316DE00DF018316A0
:101B9E005F085E04031D242DC601C701FA1A7A1BC5
:101BAE00E82D7A081F39031DE82D7A08DF39FA006F
:101BBE007A0EF100710C0139003003190130C600A4
:101BCE00C70147084604031D672CAC01AD01FA1A84
:101BDE007A1B022E7A081F39023A031D022E7A084A
:101BEE00DF39FA007A0EF100710C01390030031959
:101BFE000130AC00AD012D082C04572DAA01AB010C
:101C0E008312D51C152E5508FD39D500550C0139FA
:101C1E000030031901308316AA00AB0183162B087E
:101C2E002A04031D242DB001B101FA1A7A1B302E9D
:101C3E007A081F39013A031D302E7A08DF39FA006F
:101C4E007A0EF100710C0139003003190130B00029
:101C5E00B10131083004031D8A2DAE01AF01FA1A0D
:101C6E007A1B492E7A081F39031D492E7A08DF394F
:101C7E00FA007A0EF100710C0139003003190130AF
:101C8E00AE00AF012F082E04031D672CA801A90179
:101C9E00FA1A7A1B632E7A081F39023A031D632E35
:101CAE007A08DF39FA007A0EF100710C0139003032
:101CBE0003190130A800A90129082804572DA201F3
:101CCE00A3018312D51C762E5508FD39D500550C6F
:101CDE0001390030031901308316A200A3018316C7
:101CEE0023082204031D242DA001A101FA1A7A1B38
:101CFE00902E7A081F39031D902E7A08DF39FA00CC
:101D0E007A0EF100710C0139003003190130A00078
:101D1E00A10121082004031D672CA601A701FA1AB0
:101D2E007A1BAA2E7A081F39023A031DAA2E7A08A8
:101D3E00DF39FA007A0EF100710C01390030031907
:101D4E000130A600A70127082604572DA401A501DE
:101D5E008312D51CBD2E5508FD39D500550C013901
:101D6E000030031901308316A400A501831625083F
:101D7E002404031D242DB201B301FA1A7A1BD82EA6
:101D8E007A081F39013A031DD82E7A08DF39FA0076
:101D9E007A0EF100710C0139003003190130B200D6
:101DAE00B30133083204031D8A2DC001C101FA1A92
:101DBE007A1BF12E7A081F39031DF12E7A08DF39AE
:101DCE00FA007A0EF100710C01390030031901305E
:101DDE00C000C10141084004031D672CBE01BF01B4
:101DEE00FA1A7A1B0B2F7A081F39023A031D0B2F92
:101DFE007A08DF39FA007A0EF100710C01390030E1
:101E0E0003190130BE00BF013F083E04572DC40127
:101E1E00C5018312D51C1E2F5508FD39D500550C52
:101E2E0001390030031901308316C400C501831631
:101E3E0045084404031D242DC201C301FA1A7A1B5E
:101E4E00382F7A081F39031D382F7A08DF39FA0028
:101E5E007A0EF100710C0139003003190130C20005
:101E6E00C3014308420403194D2F83124608FF3E57
:101E7E00F100FF3003180030F200470871067204BB
:101E8E00031D672C06308316EC00FD2FBC01BD012F
:101E9E00FA1A7A1B632F7A081F39023A031D632F31
:101EAE007A08DF39FA007A0EF100710C0139003030
:101EBE0003190130BC00BD013D083C04572DB6018D
:101ECE00B7018312D51C762F5508FD39D500550C58
:101EDE0001390030031901308316B600B70183169D
:101EEE0037083604031D242DB401B501FA1A7A1BE6
:101EFE00902F7A081F39031D902F7A08DF39FA00C8
:101F0E007A0EF100710C0139003003190130B40062
:101F1E00B50135083404031D672CBA01BB01FA1A4A
:101F2E007A1BAA2F7A081F39023A031DAA2F7A08A4
:101F3E00DF39FA007A0EF100710C01390030031905
:101F4E000130BA00BB013B083A04031D592DB801FC
:101F5E00B901FA1A7A1BC42F7A081F39013A031DE8
:101F6E00C42F7A08DF39FA007A0EF100710C0139AC
:101F7E00003003190130B800B90139083804031DC7
:101F8E008A2DFD2F7908003A0319FD2F013A031906
:101F9E00FA2B033A0319112C013A0319F32C073AC1
:101FAE0003190F2D013A03195B2D033A0319BE2DA8
:101FBE00013A0319052E0F3A0319662E013A031939
:101FCE00AD2E033A03190E2F013A0319662F073A65
:101FDE000319662F013A0319662F033A0319662F68
:101FEE00013A0319662F1F3A0319662F83166C08E0
:101FFE000800FE00FE1F082883137E1883170008B2
:08200E0008008A0004088200AA
:10214200C410080020346D34003420347334003459
:102152002034683400348611C410DF1408000834B7
:1021620028341034083401344410DA015B155B1052
:1021720008004E3441346434413400340D342E347A
:1021820002340F344C3403340034553402340F34E7
:102192004C340134463449345234533474340034A8
:1021A200DA015B155B10DF14C411080046345534A4
:1021B200453452345A344134003464008001840A74
:1021C2000406031900340406DF2850344134553420
:1021D2005334453420344F344E3400345034413477
:1021E20055345334453420344F3446344634003465
:1021F2000334373408340834343407340234223494
:1022020002340F344C34063403340D340A340834A7
:10221200133409340234223402340F344C34083477
:10222200033431340634083425340534023422347C
:1022320002340F344C340434643445345334483457
:102242004134623449344C344934743441340034B6
:10225200D310B030840010300A168A1100200A16FA
:102262008A11D2005311080083120313C41D42299C
:10227200781C3E2903130616080083120313061264
:10228200080006120800C4144312C3124313C313F6
:102292002D30CE00CF00D000D1004E30BE008030B5
:1022A200BF000800033407340C3407340A340B34FB
:1022B200083404340A340234223402340F344C34E5
:1022C2000B34033407340F3407340A340E34083421
:1022D20004340A340234223402340F344C340E34BF
:1022E200033407340D3407340A340C34083404340C
:1022F2000A340234223402340F344C340C340334A2
:1023020007340B3407340A341034083404340A34E2
:102312000234223402340F344C3410340334073480
:10232200103407340A340F34083404340A340234C3
:10233200223402340F344C340F3407342B34053436
:1023420003342B3405340834283404340234223460
:1023520002340F344C340534073410340734033458
:10236200103407340834163406340234223402346A
:102372000F344C340734033401340A3406345834ED
:102382000434083407340B340234223402340F3458
:102392004C340A3407341F34093403341C340934EE
:1023A2000834193408340234223402340F344C34E1
:1023B2000934033407340E3407340A340D34083434
:1023C20004340A340234223402340F344C340D34CF
:1023D200463455344E34433449344F344E34203429
:1023E20045344E347434523441346434413400340C
:1023F2007E088A007F088200F9210A168A1180006D
:10240200840A04087D0603190034FF0A0319FE0A30
:10241200FD290F345B340134433441344E34743477
:102422004934643441346434203474344934453496
:102432004D3450344F3453340034BB34813404347B
:1024420004340034F03400340034003400340034F6
:1024520000340034003400341034003400340034CA
:1024620000340334003403340034033400340334BE
:10247200003403340034CB341034E93411340D34D5
:1024820012343834383438343834003400340034B8
:1024920000348316031794019501161C562A180856
:1024A20094070318950A190895070310980D990DBA
:1024B2000310970C960C17081604031D4E2A1508D4
:1024C20097001408960008008615DC01DD01DE0184
:1024D200861085101030CD00451A712A0330CD07C1
:1024E200C4144312C3124313C3135230CE005330E9
:1024F200CF007430D0002030D1004E30BE0080308A
:10250200BF0008008511922A5F1144134D1C8D2AC9
:10251200831203138614902A831203138610441223
:1025220008004508073903190800013A0319852AEA
:10253200033A0319852A013A0319872A073A031D28
:102542000800872A4808003A003003190130C80001
:10255200AA2AD510B130840010300A168A11002040
:102562000A168A11D4005511C4157908043A031DBC
:10257200BE2AC801451EBE2AC80A48080319C82A2D
:10258200EC30A3001030A4000A128A11542BF5304B
:10259200A3001030A4000A128A11542B8515EB2ACD
:1025A2005F15441745080739F100710C83120313B4
:1025B200031CDD2A8614DE2A861044160030861893
:1025C2000130F100F10EF10D44087106DF39710698
:1025D200C40008004508073903190800013A031925
:1025E200D12A033A0319D12A013A0319D32A073A05
:1025F200031D0800D32AF801F901FA0183135230AE
:10260200840064300A168A11DE2083160317C30180
:10261200C401C501C601C701C8015230FD00123014
:10262200FE001E30FF003E3084000A168A11FD2192
:102632008317C330FD001230FE003230FF00AB3092
:1026420084000A168A11FD210A168A1183010A12D0
:102652008A113428D510B130840010300A168A113C
:102662000020D4005511C41145084806F83948061F
:10267200C5000739A10000300A128A1153220A1636
:102682008A11432B83120313D510B130840010300A
:102692000A168A1100200A168A11D4005511C701A0
:1026A200C70A0310470DB53E840083170008A30034
:1026B200840A0008A4000A128A11542B83160F16EA
:1026C2008F160F17831217109710171197111D10DD
:1026D2009D101D119D11901010159011101690163D
:1026E2001014DC308E000B308F00831681118112A2
:1026F200011481140115F830831281008316031727
:102702000810881008118811081203138113151379
:102712000317880189010313861086120612861197
:1027220085118510871005120710871385128513EE
:1027320087110513071207138712071105140515D0
:102742008915FF3083128500860087008900861074
:10275200861206168611851185108710051207103C
:10276200871383160C1483128B160B178B17080012
:10277200831603179400C42507151E2DC42585163C
:102782008517871505170716071787120800C4252E
:10279200851685178715051307160717871608006C
:1027A200C42585128513871105130712071387168F
:1027B2000800C42585168513871105170716071704
:1027C20087160800C425851285138715051307127D
:1027D200071787120800C425851285138711051370
:1027E2000716071787120800C42585168513871157
:1027F20005170716071387120800C42585128517C7
:10280200871105130716071387120800C4258512BE
:102812008517871105130712071387120800C425AD
:1028220085128513871105170716071387160800E7
:10283200C425851285138711051307120713871202
:102842000800C4258512851387110513071607137F
:1028520087120800C42585128513871105130712F4
:10286200071787120800C4258512851387110517DB
:102872000712071387120800C425851685178711CA
:1028820005130712071387120800C425851685173A
:10289200871505130712071787120800C42585122A
:1028A2008517871505130712071387160800C42515
:1028B200851685138711051307120717871208005B
:1028C200C425851685178711051307120717871266
:1028D2000800C425851285138715051307120713EF
:1028E20087120800C425851285178715051307125C
:1028F200071387120800C425851285178715051747
:102902000712071387120800C4258516851387113D
:1029120005170712071387120800C42585168517A5
:10292200871105170712071387120800C425851699
:102932008517871105170716071787160800C4257C
:1029420085168513871105130712071787160800C6
:10295200C4258516851787150513071207138716D1
:102962000800C42585168517871105170712071752
:1029720087120800C42585128513871105170712CF
:10298200071387160800C4258512851387150517B6
:102992000712071387120800C425851285138711B1
:1029A20005170716071387120800C4258516851711
:1029B200871505170712071787120800C425851205
:1029C2008517871505170712071387160800C425F0
:1029D2008516851787150513071207138712080036
:1029E200C425851685178711051307120717871641
:1029F2000800C425851685138711051307120713CE
:102A020087160800C4258516851387110513071636
:102A1200071387120800C425851285178715051329
:102A22000716071787120800C4258516851787150C
:102A320005170716071787160800831603171408C9
:102A4200233A03190C2D0E3A0319BF2B1D3A031911
:102A5200D12B013A0319DA2B033A0319E32B013A7A
:102A62000319EC2B073A0319F52B013A0319FE2B34
:102A7200033A0319072C013A0319102C0F3A0319D0
:102A8200192C013A0319222C783A0319342C023AF0
:102A920003194F2C073A0319582C013A0319732CC6
:102AA200033A03197C2C013A0319072C0F3A031934
:102AB200852C013A0319DA2B033A0319A02C063AA2
:102AC2000319A92C013A0319BB2C033A0319BB2C95
:102AD200013A0319D12B1F3A0319C42C023A0319E4
:102AE200DF2C013A0319FE2B073A0319E82C013AAD
:102AF2000319FA2C0C3A0319032D033A0319E32B99
:102B0200053A0319C82B3E3A03192B2C033A031931
:102B12003D2C013A0319462C073A0319582C013A65
:102B220003196A2C033A03197C2C013A0319222C4B
:102B32000F3A03198E2C013A0319972C053A0319FF
:102B4200DA2B013A0319B22C033A0319B22C013AD7
:102B52000319612C1F3A0319C42C013A0319CD2C15
:102B6200033A0319D62C013A0319FE2B073A03192B
:102B7200E82C013A0319F12C033A0319F12C0F3A0C
:102B82000319032D152D831203130800FA278B1A3C
:102B92000B1DB62EF830810087100512071087131F
:102BA2004208103A0319C201043042020318812E6E
:102BB20040084207FD27A000A101A10D2108803A8B
:102BC200A20080302202031DE82D04302002031CE3
:102BD200062EFA2742084007FD27A000A101A10DF9
:102BE200FA274108033EFD27A200003003180130F6
:102BF200A3002308803AA4002108803A2402031D7E
:102C0200042E2008220203180D2E20300A168A11E3
:102C1200B9230A168A11652EFA2742083E07FD27B4
:102C2200A000FA273F080318013EFD27A100FA275A
:102C32004008FD272007A20021080318013EA30037
:102C4200FC3022078400FF300318003023070A16E5
:102C52008A1100200A168A11B9230A168A11652ED2
:102C6200FA27431C372EF808031D812E431A3B2EE8
:102C720007153C2E07118714812EFA27C31C442EF8
:102C8200F808031D812EC31A482E0715492E071175
:102C92000516812EFA27431D512EF808031D812E99
:102CA200431B552E0715562E07110714812EFA279E
:102CB200C31D5E2EF808031D812EC31B622E07154D
:102CC200632E07118717812EFD27A101FA274208DB
:102CD200033CFD27A000031CA1037D2E2008003A1F
:102CE2000319312E013A03193E2E033A03194B2ED2
:102CF200013A0319582E812E2108003A03196F2E2A
:102D0200FA27C20A003005180130FD27950000306D
:102D1200F0260A168A110030FA2705190130FD271C
:102D220095000130F0260A168A110030FA27891917
:102D32000130FD2795000230F0260A168A11003074
:102D4200FA2706180130FD2795000330F0260A16EF
:102D52008A110030FA2706190130FD279500043048
:102D6200F0260A168A11FA270B1183160C1CE42E80
:102D720083120C1CE42EDC308E000B308F000030EE
:102D82003B270A168A1101303B270A168A110230A4
:102D92003B270A168A1103303B270A168A11043090
:102DA2003B270A168A11003077270A168A11A901D1
:102DB200A90AAA0178080319E02EA901AA01290883
:102DC200F800FA270C10FD272808FE0027088A00C1
:102DD2002608840025088300FF0E7F0E0900940058
:102DE2000310140DAC3E840083170008003A031050
:102DF2000319002F140DAC3E840080030800140D4B
:102E0200AB3E840000081506FE391506800003104B
:102E1200140DAB3E84000310140DAB3E001C1A2FA0
:102E220084008018172FFA167A17252F0310140D15
:102E3200AB3E84000310140DAB3E0018332F840008
:102E4200801C302FFA167A130310140DAC3E840046
:102E5200193080007A081406E0391406FA000310CB
:102E6200140DAB3E84008317001C392F8014080018
:102E720080100800FD2795000310150D533E8400B5
:102E82008313001908000310150D523E8400000838
:102E9200003A031908000310150D523E8400800306
:102EA2000310150D523E84008008031D0800031014
:102EB200150D533E840080140310150D533E8400FB
:102EC200001C08001508B03E840010300318013EB3
:102ED2000A168A1100200A168A1194000310150D91
:102EE200523E840014088313800008009F009A0059
:102EF20003109A0D03101A0D5F3E8400001908009A
:102F02001F089A0003109A0D03101A0D5C3E8400EC
:102F120000089B00840A00089C00840A00089D00A7
:102F2200803A9E0080301E02031D9D2F00301C023D
:102F3200031D9D2F01301B02031C08001F089A006D
:102F420003109A0D03101A0D5C3E8400FF308007B7
:102F5200840A0318013E031D8007840AFF30031808
:102F6200013E80071F089A0003109A0D03101A0DE4
:102F72005C3E840000089B00840A00089C00840ACE
:102F820000089D001C041B04031D08001F089A0072
:102F920003109A0D03101A0D5F3E840080141F085F
:102FA2009A0003109A0D03101A0D5F3E8400001C54
:102FB20008001F081F071F07C33E8400831700086D
:102FC2009A00840A00089B00840A00089C001F08DB
:102FD2009D0003109D0D03101D0D5C3E84001A0818
:102FE20083138000840A1B088000840A1C08800066
:0E2FF20008008312031308008316031708005B
:08400000200011000200220063
:04400E00042FFF3E3E
:1042000000000000020000000100000000000000AB
:10421000000000000000000000000000000000009E
:104220000000000020000000000028000000000046
:10423000000000000000000000000000000000007E
:10424000000000000000000000000000000000006E
:10425000000000000000000000000000000000005E
:10426000000000000000000000000000000000004E
:10427000000000000000000000000000000000003E
:10428000000000000000000000000000000000002E
:10429000000000000000000000000000000000001E
:1042A000000000000000000000000000000000000E
:1042B00000000000000000000000000000000000FE
:1042C00000000000000000000000000000000000EE
:1042D00000000000000000000000000000000000DE
:1042E00000000000000000000000000000000000CE
:1042F00000000000000000000000000000000000BE
:1043000000000000000000000000000000000000AD
:10431000000000000000000000000000000000009D
:10432000000000000000000000000000000000008D
:10433000000000000000000000000000000000007D
:10434000000000000000000000000000000000006D
:10435000000000000000000000000000000000005D
:10436000000000000000000000000000000000004D
:10437000000000000000000000000000000000003D
:10438000000000000000000000000000000000002D
:10439000000000000000000000000000000000001D
:1043A000000000000000000000000000000000000D
:1043B00000000000000000000000000000000000FD
:1043C00000000000000000000000000000000000ED
:1043D00000000000000000000000000000000000DD
:1043E00000000000000000000000000000000000CD
:1043F00000000000000000000000000000000000BD
:00000001FF
