:060000000A128A11122809
:10000800FF00030883160317A1000408A2000A08CA
:10001800A3007E08A4000A128A15162C0A168A1153
:100028000E2FA6002128D901561E2828D90A2828CB
:10003800D901561C2828D90A28282608003A031965
:100048001728013A03191C280430E000CB0159088D
:10005800A50058082F28A4004E282508EA3E840049
:1000680083130008C900CA012508EA3E8400000875
:1000780065232208CC0056081F394038D6000800EE
:100088002508EC3E840083130008C900CA0125082E
:10009800EC3E3A282408003A03193128013A031D96
:1000A80008004428E0080319FA1E93287A081F3923
:1000B800031D9328FA12E001E00AD7018316A31062
:1000C800031727080313A000031728080313A10028
:1000D800031729080313A2002311AF100930A73E04
:1000E800840083170008AC00840A0008AD00840A65
:1000F8000008AE002F112F148312CB018316640859
:100108008312C900CA018316640865230A128A117A
:1001180083132208CC00D201D301D401D501600B8E
:1001280069298316D201D301FA1EAC287A081F392F
:10013800031DAC287A08DF39FA007A0E8312B00062
:10014800300C01390030031901308316D200D30175
:10015800530852040319D928A001A101A201AB1028
:10016800AD30840083170008A800840A0008A9009D
:10017800840A0008AA002B110530831257020318BD
:10018800C728D70AC828D701CB015708E43E8400FE
:1001980083130008C900CA015708E43E8400000818
:1001A80065230A128A112208CC008316D001D101D6
:1001B800FA1EF1287A081F39013A031DF1287A0836
:1001C800DF39FA007A0E8312B000300C01390030A2
:1001D800031901308316D000D101510850040319C6
:1001E8000A29A310031727080313A00003172808D8
:1001F8000313A100031729080313A2002311831274
:1002080057080A168A117F270A128A118316CE0107
:10021800CF01FA1E22297A081F39023A031D222922
:100228007A08DF39FA007A0E8312B000300C0139EF
:100238000030031901308316CE00CF014F084E0459
:1002480003195329A310031727080313A000031742
:1002580028080313A100031729080313A200231178
:10026800A801A901AA01271953292608250424044D
:1002780003195329A401A501A6018312CB0157082C
:10028800E43E840083130008C900CA015708E43E0D
:100298008400000865230A128A112208CC008316FC
:1002A800D801D901A31C62292308FD39A300230C16
:1002B8000139003003190130D800D9015908580410
:1002C8000319692980230A128A1183126008033AE4
:1002D800031DF4298316D601D701FA1E85297A0849
:1002E8001F39031D85297A08DF39FA007A0E83122F
:1002F800B000300C01390030031901308316D600E4
:10030800D701570856040319AF29A3100317270864
:100318000313A000031728080313A10003172908D3
:100328000313A20023118312D808031D9D29D80A9C
:100338009E29D801CB015808653E84008313000824
:10034800C900CA015808653E8400000865230A12DE
:100358008A112208CC008316D401D501FA1EC729B8
:100368007A081F39013A031DC7297A08DF39FA00CC
:100378007A0E8312B000300C0139003003190130B5
:100388008316D400D501550854040319DE29A31097
:10039800031727080313A000031728080313A10055
:1003A800031729080313A2002311831258081520E4
:1003B8000A128A118316CC01CD01A31CED2923084A
:1003C800FD39A300230C0139003003190130CC009A
:1003D800CD014D084C040319F42980230A128A110F
:1003E80083126008043A031DB52A761CFE29F127FA
:1003F8008616002A031386128316C401C501FA1E45
:10040800172A7A081F39031D172A7A08DF39FA00D4
:100418007A0E8312B000300C013900300319013014
:100428008316C400C501450844040319462AA310CD
:10043800031727080313A000031728080313A100B4
:10044800031729080313A20023118312560EB000C4
:10045800300C0739FF3EB100FF3003180030B200FE
:10046800803A803C031D3A2A3108590203183E2A73
:10047800D90A3F2AD901CB015908A50058082F20CD
:100488000A128A118316C201C301FA1E5E2A7A086B
:100498001F39013A031D5E2A7A08DF39FA007A0EFD
:1004A8008312B000300C0139003003190130831673
:1004B800C200C301430842040319982AA310031772
:1004C80027080313A000031728080313A100031724
:1004D80029080313A200231183125908A3005808FE
:1004E80097230A128A110330F127E0008316331983
:1004F800852A32083104300483120319862A8612A9
:10050800872A83128616CB015808653E8400831318
:100518000008C900CA015808653E84000008652320
:100528000A128A112208CC008316C001C101A31C3B
:10053800A72A2308FD39A300230C01390030031929
:100548000130C000C1014108400483120319B62AD2
:100558005908A300580897230A128A1180230A12FF
:100568008A1183126008023A031D00348316CA01F7
:10057800CB01FA1ED12A7A081F39031DD12A7A081D
:10058800DF39FA007A0E8312B000300C01390030DE
:10059800031901308316CA00CB014B084A0403191A
:1005A8000C2BA310031727080313A0000317280810
:1005B8000313A100031729080313A2002311F90844
:1005C800031DEE2A7708093A031DEC2AF701F52ADC
:1005D800F70AF52A7808093A031DF42AF801F52ADA
:1005E800F80A0A308312A0007808E3230A128A1155
:1005F800B00077083007FB005708C9270A128A118C
:10060800BC30AA000430AB007B0846270A128A11C6
:100618008316C801C901FA1E242B7A081F39013A2A
:10062800031D242B7A08DF39FA007A0E8312B000F2
:10063800300C01390030031901308316C800C90194
:10064800490848040319452BA31003172708031367
:10065800A000031728080313A10003172908031390
:10066800A2002311F908031D402BF901F90A83128E
:10067800CE01CF01CF0A452BF9018312CE01CE0A54
:10068800CF018316C601C701A31C542B2308FD39CB
:10069800A300230C0139003003190130C600C7013B
:1006A800470846040319003483125908AF00570855
:1006B8000A128A1542230A128A118023CE01CF0119
:1006C80000348312A000A1002108A10A0A128A1589
:1006D80009200A128A110038031D682B20082102FC
:1006E800F000F101F01BF103FF3EA20071080318AE
:1006F800013EFF3EA3000800F127E0018316AC018C
:10070800AD01AE012F152F10AF103319942B3208FD
:1007180031043004031D3319942B83128612080008
:10072800831286160800A200AB2B0630A10023080E
:10073800F100F10E56087106EF397106A92B083041
:10074800A10056082306FE392306D600B62B220838
:10075800003A0319992B013A0319A32BB62B230846
:10076800FB00BD2B2208003A0319B32B013A0319E9
:10077800B32B7B08A0002108C12BF00083160317B8
:100788008C18C22B700883128D00031320080317DE
:100798008C003F3083168C050310F1278B1B031444
:1007A8008B13831603170C1555308D00AA308D0056
:1007B8008C140C11031C0800F1278B170800F1009A
:1007C800F00120087118F0070310A00D0310F10CB8
:1007D800F108031DE52B7008080083163208310460
:1007E80030040319B318502C3319502C360835042B
:1007F80034040319B718502C3719502C8312561A81
:100808000B2C5A08B6005B08B5005C08122C561E63
:10081800132C5D08B6005E08B5005F08B4000A3006
:100828003602031C252C6130AA000230AB003608C2
:1008380046270A128A116330AA000230AB00350835
:10084800872E0A30360203187A2E360803197A2EB4
:100858006130AA00AB01AB0A360846270A128A1192
:100868006230AA000230AB00350846276430AA007F
:10087800AB01AB0A0A30F00034080A168A11BD270A
:100888000A128A1146270A128A11D201D301D30A01
:10089800D401D501D50A8D2E3319572C32083104CD
:1008A8003004031D592C331D642D8312561D682CEA
:1008B80076080319682C2030E100E200E300E40028
:1008C800D201D301D4018C2E561CCE2C83163008AD
:1008D80003173302F127A50083163108031C310FD3
:1008E80003173402F127A60083163208031C320FBF
:1008F80003173502F127A7004030A8003830A900B7
:10090800AA0196260A128A1183132508B6008316AF
:10091800300803173302F127A50083163108031C9A
:10092800310F03173402F127A60083163208031C7F
:10093800320F03173502F127A700F030A800A901EC
:10094800AA0196260A128A112508AB002608AC00CF
:100958002708AD003C30AE00AF01B001F3260A1203
:100968008A1183132B08B500831630080317330246
:10097800F127A50083163108031C310F0317340231
:10098800F127A60083163208031C320F031735021D
:10099800F1274C2D0430B100B201B30183163008A1
:1009A8008312B107831631080318310FDC2CDE2CB3
:1009B8008312B207831632080318320FE42CE62C90
:1009C8008312B30783123108A5003208A600330842
:1009D800A7004030A8003830A900AA0196260A12BC
:1009E8008A1183132508B6000430B100B201B3019F
:1009F800831630088312B107831631080318310FA4
:100A0800062D082D8312B207831632080318320FF9
:100A18000E2D102D8312B30783123108A50032085A
:100A2800A6003308A700F030A800A901AA0196265D
:100A38000A128A112508AB002608AC002708AD0069
:100A48003C30AE00AF01B001F3260A128A118313BD
:100A58002B08B5000430B100B201B3018316300889
:100A68008312B107831631080318310F3C2D3E2D30
:100A78008312B207831632080318320F442D462D0D
:100A88008312B30783123108A5003208A600330881
:100A9800A7000430A800A901AA0196260A128A1103
:100AA8002508AB002608AC002708AD003C30AE0096
:100AB800AF01B001F3260A128A1183132B08122CF6
:100AC80037196B2D360835043404031D6D2D371D79
:100AD8008D2E8312D61D732D7608031D5F2CD61C10
:100AE800D92D8316340803173602F127A50083167B
:100AF8003508031C350F03173702F127A6008316A4
:100B08003608031C360F03173802F127A7004030B8
:100B1800A8003830A900AA0196260A128A11831360
:100B28002508B6008316340803173602F127A500F6
:100B380083163508031C350F03173702F127A60063
:100B480083163608031C360F03173802F127A7004F
:100B5800F030A800A901AA0196260A128A112508D0
:100B6800AB002608AC002708AD003C30AE00AF0152
:100B7800B001F3260A128A1183132B08B5008316D5
:100B8800340803173602F127A50083163508031C1D
:100B9800350F03173702F127A60083163608031C02
:100BA800360F03173802F127572E0430B100B2016F
:100BB800B301831634088312B10783163508031866
:100BC800350FE72DE92D8312B2078316360803186F
:100BD800360FEF2DF12D8312B30783123108A500CC
:100BE8003208A6003308A7004030A8003830A90012
:100BF800AA0196260A128A1183132508B600043022
:100C0800B100B201B301831634088312B107831609
:100C180035080318350F112E132E8312B2078316C9
:100C280036080318360F192E1B2E8312B3078312AA
:100C38003108A5003208A6003308A700F030A80044
:100C4800A901AA0196260A128A112508AB002608CE
:100C5800AC002708AD003C30AE00AF01B001F32670
:100C68000A128A1183132B08B5000430B100B201AF
:100C7800B301831634088312B107831635080318A5
:100C8800350F472E492E8312B207831636080318EC
:100C9800360F4F2E512E8312B30783123108A50049
:100CA8003208A6003308A7000430A800A901AA0149
:100CB80096260A128A112508AB002608AC002708D8
:100CC800AD003C30AE00AF01B001F3260A128A1124
:100CD80083132B08B4000A3036020318172C0A3085
:100CE800360203187A2E3608031D2C2C6130AA0010
:100CF8000230AB00350846270A128A116330AA0071
:100D08000230AB0034084627D201D301D401D40AFB
:100D1800D50104308312CB00CC006130C90080308B
:100D2800CA000800A101AA1FA32EA809A909AA0997
:100D3800A80A0319A90A0319AA0AA101A10AA71F47
:100D4800AF2EA509A609A709A50A0319A60A03191A
:100D5800A70A0130A106A201A301A4012A082904B7
:100D680028040319E12EA001A00A0310AA1BC12E12
:100D7800A80DA90DAA0DB82E0310A20DA30DA40D40
:100D88002A082702031DCE2E29082602031DCE2E6F
:100D980028082502031CDC2E2808A5022908031CA4
:100DA800290FA6022A08031C2A0AA70222140310E4
:100DB800AA0CA90CA80CA00BC02E21080319EC2E14
:100DC800A209A309A409A20A0319A30A0319A40AD8
:100DD8002208A5002308A6002408A7000800F0019F
:100DE800AD1F002FAB09AC09AD09AB0A0319AC0A5A
:100DF8000319AD0AF001F00AB01F0A2FAE09AF09B6
:100E0800B009AE0A0319AF0A0319B00A30082F0453
:100E18002E040319342FF101F10AB01B182F031007
:100E2800AE0DAF0DB00D102F30082D02031D222F6F
:100E38002F082C02031D222F2E082B02031C2F2FF4
:100E48002E08AB022F08031C2F0FAC023008031C1E
:100E5800300AAD020310B00CAF0CAE0CF10B182F1A
:100E6800700803193F2FAB09AC09AD09AB0A031988
:100E7800AC0A0319AD0A2B08AB002C08AC002D08EE
:100E8800AD000800A9002B03AA07A8012B08280217
:100E9800031808002A0884000A30F1002908AD2741
:100EA8000A128A11303E83138000AA032908A4007D
:100EB800A5010A30A600A70168270A128A11831320
:100EC8002408A900A80A4A2FA101A71F722FA60962
:100ED800A709A60A0319A70AA101A10AA51F7B2F22
:100EE800A409A509A40A0319A50A0130A106A201AB
:100EF800A301270826040319A02FA001A00A0310A4
:100F0800A71B8A2FA60DA70D822F0310A20DA30DD4
:100F180027082502031D922F26082402031C9C2F54
:100F28002608A4022708031CA503A50222140310FF
:100F3800A70CA60CA00B892F21080319A82FA2091A
:100F4800A309A20A0319A30A2308A5002208A400DA
:100F58000800A0000830A100A2012008F000073016
:100F68000310F00CFF3E0310031DB52F220D700473
:100F7800A2000310A00D71082202031CC52F7108DE
:100F8800A202A10BB12F22080800F000DD2F7B0878
:100F9800DA0008007B08DB0008007B08DC0008009A
:100FA8007B08DD0008007B08DE0008007B08DF0006
:100FB80008007008003A0319CB2F013A0319CE2F05
:100FC800033A0319D12F013A0319D42F073A031909
:100FD800D72F013A031D0800DA2F831203130800E4
:100FE80064008001840A0406031900340406F52FFE
:020FF8000800EF
:10100000FE00FE1F082883137E18831700080800BF
:101010000408FE0008308A007E088207003462342B
:101020002D342034503455344C3453344F34203420
:101030005234453447345234453453344934763489
:10104000413420344F3420347434523441344E34DB
:1010500053344334553452345234493444344F3485
:1010600000344534733474344F342034453473348D
:10107000203455346E344134203450347234753455
:1010800045346234413420346434453420344634A9
:101090004534643445347234693463344F34003435
:1010A00032342D34203446345534453452345A3495
:1010B0004134203445344E34433445344E34643462
:1010C000493464344F34003441342D3420344634B0
:1010D00055344E34433449344F344E34203445343F
:1010E0004E34743452344134643441340034323434
:1010F0002D3420347434523441344E345334433418
:10110000553452345234493464344F3400346434E6
:1011100045344D344F345234413420345334453403
:10112000473455344E3444344F34533400346434EB
:1011300045344D344F345234413420344D344934E5
:101140004E34553474344F345334003431342D34E8
:10115000203464344534533448344134623449349F
:101160004C344934743441340034503455344C34A4
:1011700053344F34203453344534473455344E348B
:1011800044344F3453340034503455344C34533495
:101190004F3420344D3449344E34553474344F3444
:1011A00053340034643445344D344F345234413474
:1011B000203448344F3452344134533400343134C1
:1011C0002D3420345234453447345234453453346A
:1011D0004934763441340034503455344C3453342B
:1011E0004F34203448344F34523441345334003473
:1011F8008316031790019101121C082914089007FF
:101208000318910A150891070310940D950D031002
:10121800930C920C13081204031D00291108930063
:1012280010089200080083160F168F160F178312E6
:1012380017109710171197111D109D101D119D1152
:10124800901010159011101690161014DC308E00A6
:101258000B308F008316811181120114811401153E
:10126800F8308312810083160317081088100811BC
:1012780088110812031381130317880189010313C6
:10128800861086128710051107108713051285121C
:101298008711051307120713871207110514851400
:1012A800FF30831285008600870089008610861625
:1012B800871005110710871383160C1483128B16D9
:1012C8000B178B17080083120313E008031D7229FC
:1012D8000A128A11F1230A128A158E2983162719F0
:1012E8008E2926082504240403198E2948308312E0
:1012F800E1004F30E2004C30E3006430E400D201FA
:10130800D301D401D5010430CB00CC006130C90031
:101318008030CA008312BE01BF018316B31C9F2907
:101328003308FD39B300330C01390030031901309B
:101338008312BE00BF0183123F083E040319B5297A
:10134800861086168316B7100F30A73E84008317C1
:101358000008B400840A0008B500840A0008B60032
:1013680037118312C001C1018316B71CC62937087B
:10137800FD39B700370C01390030031901308312E9
:10138800C000C1018312410840040319DC298614F6
:1013980086128316B3100C30A73E8400831700080A
:1013A800B000840A0008B100840A0008B2003311B2
:1013B8008312C201C3018316AB1CED292B08FD392A
:1013C800AB002B0C01390030031901308312C20025
:1013D800C3018312430842040319012A8316A71084
:1013E8000330A73E840083170008A400840A00087D
:1013F800A500840A0008A60027118312B801B901C4
:101408008316A71C122A2708FD39A700270C0139C3
:101418000030031901308312B800B901831239086A
:10142800380403193C2A0330E0008316A31003177D
:1014380027080313A000031728080313A1000317A4
:1014480029080313A20023118312CB015808653E13
:10145800840083130008C900CA015808653E840047
:1014680000080A128A1165230A128A152208CC007C
:10147800561A762ABA01BB01FA1E532A7A081F396E
:10148800043A031D532A7A08DF39FA007A0EB700A6
:10149800370C0139003003190130BA00BB013B0891
:1014A8003A040319682A861486128316B3100C307E
:1014B800A73E840083170008B000840A0008B10022
:1014C800840A0008B2003311831206180800831634
:1014D800B001B101B201B401B501B60183128610A1
:1014E80086160800561E0800BC01BD01FA1E8D2A8A
:1014F8007A081F39043A031D8D2A7A08DF39FA0061
:101508007A0EB700370C0139003003190130BC00DE
:10151800BD013D083C040319A22A861086168316CD
:10152800B7100F30A73E840083170008B400840A60
:101538000008B500840A0008B6003711831206189F
:1015480008008316B001B101B201B401B501B601BA
:101558008312861486120800CE01CF01D001D10172
:1015680006302A230A128A150313AD00AD0E560859
:101578002D06EF392D06D60008302A230A128A15BF
:101588000313AD005606FE392D06D60010302A2367
:101598000A128A150313DA0011302A230A128A154F
:1015A8000313DB0012302A230A128A150313DC0006
:1015B8005B08AA005C08AB005A08A2230A128A1525
:1015C8002A081024B30013242B081024B400132471
:1015D8002C081024B5000D302A230A128A1503138B
:1015E800DD000E302A230A128A150313DE000F309D
:1015F8002A230A128A150313DF005E08AA005F086F
:10160800AB005D08A2230A128A152A081024B60026
:1016180013242B081024B70013242C081024B80016
:101628001324D61556118316B3100C30A73E840028
:1016380083170008B000840A0008B100840A000873
:10164800B200331183128614861208001324A000F6
:1016580010248C182C2B1324200803178D003F30DE
:1016680083168C050C1403100C180314003003188F
:101678000130F000F10183120C080800AD00882B3E
:101688001030AE007B08DA00522B1130AE007B0818
:10169800DB00522B1230AE007B08DC005B08AA008E
:1016A8005C08AB005A08A2230A128A152A081024DB
:1016B800B30013242B081024B40013242C0810247E
:1016C800B5009B2B0D30AE007B08DD00742B0E306F
:1016D800AE007B08DE00742B0F30AE007B08DF0005
:1016E8005E08AA005F08AB005D08A2230A128A15EB
:1016F8002A081024B60013242B081024B70013243A
:101708002C081024B8009B2B2D08003A0319442BF1
:10171800013A0319492B033A03194E2B013A0319CD
:10172800662B073A03196B2B013A0319702B7B08B8
:101738001324A0002E080A128A11C12BA9002B0815
:10174800F000F101F2012A08A300A401A5013C3030
:10175800A600A701A801E9230A128A152308F300A5
:101768002408F4002508F5002908A300A401A50110
:101778001030A6000E30A7000030A801E9230A1295
:101788008A1583132308F30724080318240FF40782
:1017980025080318250FF5077308F00774080318C0
:1017A800740FF10775080318750FF207023003105C
:1017B800F00DF10DF20DFF3E031DDB2B7008AA00A2
:1017C8007108AB007208AC000800A001A101A201D9
:1017D800231CFC2B2608A007270803110318270A37
:1017E800031DA107280803110318280A031DA207CF
:1017F8000310A60DA70DA80D0310A50CA40CA30C8F
:10180800250824042304031DEC2B2008A300210829
:10181800A4002208A50008008316031708008312F5
:1018280003130800D4278B1A0B1DDB2CF83081001A
:1018380087100511071087134D08103A0319CD01B9
:1018480004304D020318C72C4B084D07D7279C00BE
:101858009D019D0D1D08803A9E0080301E02031DCB
:10186800372C04301C02031C552CD4274D084B0779
:10187800D7279C009D019D0DD4274C08033ED727F0
:101888009E000030031801309F001F08803AA00016
:101898001D08803A2002031D532C1C081E02031841
:1018A8005A2C20309E250A128A15BA2CD4274D08A6
:1018B8004907D7279C00D4274A080318013ED72791
:1018C8009D00D4274B08D7271C079E001D08031826
:1018D800013E9F00FC301E078400FF3003180030D3
:1018E8001F070A128A1500200A128A159E250A1255
:1018F8008A15BA2C4E08031DF608031DC72C52087A
:10190800003AD427031D8A2C07158B2C071187143E
:10191800C72C4F08031DF608031DC72C5308003AAF
:10192800D427031D992C07159A2C07110515C72CC8
:101938005008031DF608031DC72C5408003AD42785
:10194800031DA82C0715A92C07110714C72C51082B
:10195800031DF608031DC72C5508003AD427031D9C
:10196800B72C0715B82C07118717C72C4D08003A54
:101978000319AB2C013A03199C2C033A03198D2C3B
:10198800013A03197E2CCD0A0A168A1172260A1208
:101998008A15DA270A128A15AF270A128A157727B5
:1019A8000A168A1197260A128A1583120B118316B2
:1019B8000C1C0D2D83120C1C0D2DDC308E000B30F1
:1019C8008F00003019250A128A15013019250A12CC
:1019D8008A15023019250A128A15033019250A12A8
:1019E8008A15043019250A128A15053019250A1294
:1019F8008A15063019250A128A15A501A50AA60115
:101A080076080319092DA501A6012508F600D42793
:101A18000C10D7272408FE0023088A002208840017
:101A280021088300FF0E7F0E0900D7279B00960030
:101A38000310960D0310160DA33E8400831300199E
:101A480008001B0896000310960D0310160DA03E03
:101A5800840000089700840A00089800840A000897
:101A68009900803A9A0080301A02031D412D0030F7
:101A78001802031D412D01301702031C08001B0822
:101A880096000310960D0310160DA03E8400FF303B
:101A98008007840A0318013E031D8007840AFF306B
:101AA8000318013E80071B0896000310960D0310CB
:101AB800160DA03E840000089700840A00089800CC
:101AC800840A0008990018041704031D08001B085D
:101AD80096000310960D0310160DA33E8400801483
:101AE8001B0896000310960D0310160DA33E8400E4
:101AF800001C08001B081B071B07A73E8400831750
:101B080000089600840A00089700840A00089800D4
:101B18001B0899000310990D0310190DA03E8400AD
:101B2800160883138000840A17088000840A18089E
:101B380080000800D7279000D4270715E72ED42760
:101B48000516851687150517071607178712080043
:101B5800D427051285128711051307120713871654
:101B68000800D427051685128711051707160717C9
:101B780087160800D4270512851287150513071242
:101B8800071787120800D427051285128711051335
:101B98000716071787120800D4270516851287111C
:101BA80005170716071387120800D427051285168C
:101BB800871105130716071387120800D427051283
:101BC8008516871105130712071387120800D427F3
:101BD80005128512871105170716071387160800BF
:101BE800D4270512851287110513071207138712C8
:101BF8000800D42705128512871105130716071345
:101C080087120800D42705128512871105130712B9
:101C1800071787120800D4270512851287110517A0
:101C28000712071387120800D4270516851687118F
:101C380005130712071387120800D42705168516FF
:101C4800871505130712071787120800D4270512EE
:101C58008516871505130712071387160800D4275A
:101C68000516851287110513071207178712080032
:101C7800D427051285128715051307120713871233
:101C88000800D427051285168715051307120713B0
:101C980087120800D427051285168715051707121D
:101CA800071387120800D427051685128711051710
:101CB8000712071387120800D427051685168711FF
:101CC80005170716071787160800D4270516851263
:101CD800871105130712071787160800D42705165A
:101CE8008516871505130712071387160800D427CA
:101CF800051685168711051707120717871208009A
:101D0800D42705128512871105170712071387169E
:101D18000800D4270512851287150517071207131F
:101D280087120800D4270512851287110517071690
:101D3800071387120800D427051685168715051777
:101D48000712071787120800D4270512851687156A
:101D580005170712071387160800D42705168516D6
:101D6800871505130712071387120800D4270516CD
:101D78008516871105130712071787160800D42739
:101D88000516851287110513071207138716080011
:101D9800D42705168512871105130716071387120E
:101DA8000800D42705128516871505130716071787
:101DB80087120800D42705168516871505170716F4
:101DC800071787160800D7271008233A0319D52EB6
:101DD8000E3A0319A32D1D3A0319AC2D013A031924
:101DE800B52D033A0319BE2D013A0319C72D073A39
:101DF8000319D02D013A0319D92D033A0319E22DFD
:101E0800013A0319EB2D0F3A0319F42D013A03197E
:101E1800FD2D783A03190F2E023A03192A2E073A94
:101E28000319332E013A0319452E033A03194E2E8E
:101E3800013A0319E22D0F3A0319572E013A0319F3
:101E4800B52D033A0319692E063A0319722E013A81
:101E58000319842E033A0319842E013A0319AC2D71
:101E68001F3A03198D2E023A0319A82E013A0319B5
:101E7800D92D073A0319B12E013A0319C32E0C3A8A
:101E88000319CC2E033A0319BE2D3B3A0319062E2B
:101E9800033A0319182E013A0319212E073A031998
:101EA800332E013A03193C2E0C3A0319602E043ADA
:101EB80003197B2E033A03197B2E1F3A0319962E1A
:101EC800033A03199F2E013A0319D92D073A03192A
:101ED800B12E013A0319BA2E033A0319BA2E0F3A52
:101EE8000319CC2EDE2E61080319932FE10300306D
:101EF800831206180130D7279000031360080317D0
:101F08001006FE3910060313E000601CE01CAB2F1E
:101F18006430E100AB2F83160313E0100800003093
:101F2800831206180130D72790000313600803179F
:101F38001006FE3910060313E000601CE01CAB2FEE
:101F48006430E1007A08E0390338FA00FA16601CB8
:101F58008F2FE01408005F080319B42FDF0308006F
:101F68000030831205180130D727900003135E084C
:101F780003171006FE3910060313DE005E18DE187C
:101F8800CC2F6430DF007A08E0390238FA00FA16FC
:101F98005E1CD02FDE14080083160313DE10080021
:101FA8008312031308008316031708005D0803193A
:101FB800DF2FDD03080000308312851801308316F7
:101FC8000317900003135C0803171006FE39100668
:101FD8000313DC005C1CDC1CF82F6430DD007A087D
:101FE800E0390138FA00FA165C1CFC2FDC140800F2
:081FF80083160313DC1008003E
:102CE40083165B080319782EDB0308000030831277
:102CF4000518013083160317900003135A080317AD
:102D04001006FE3910060313DA005A1CDA1C8F2E43
:102D14006430DB00E030FA05FA165A1C932EDA14FC
:102D2400080083160313DA10080063080319B62E8B
:102D3400E30B9D2EFA160030831206180130831619
:102D4400031790000313620803171006FE391006D8
:102D54000313E2006218E218CE2E6430E300CE2E94
:102D640083160313E21008000030831206180130A2
:102D74008316031790000313620803171006FE3925
:102D840010060313E2006218E218CE2E6430E3004A
:102D94007A08E0390438FA00621CB22EE214080002
:102DA4000A128A11FC270A128A1517210A128A1597
:102DB400B0220A128A1567210A128A1156200A16AD
:102DC4008A118312C701C8018316AF1CF42E2F0881
:102DD400FD39AF002F0C0139003003190130831283
:102DE400C700C8018312480847040319DB2ECB0A25
:102DF4004C08043EC400003003180130C500803A7A
:102E0400C60080304602031D092F4B0844020318F4
:102E1400DB2E0313CB01DB2EF601F701F801F901D8
:102E2400FA01FB0183134930840065300A128A11C8
:102E3400F427A0308400C0300A128A11F4270A163D
:102E44008A115630E5000130E60083160330DA00BB
:102E54000030DB000330DC000030DD000330DE0036
:102E64000030DF000330E0000030E1000330E20016
:102E74000030E300DE30E400B630E500A730E600C1
:102E8400C430E7008930E8007930E9009830EA007E
:102E94004230EB00D130EC006930ED0003172830EC
:102EA400A7000030A8000030A9001030AA000030AC
:102EB400AB000030AC000830AD000030AE00003094
:102EC400AF000130B0000030B1000030B20000307B
:102ED400B3000030B4000030B5000030B60000305C
:102EE400B7000030B8000030B9000030BA0000303C
:102EF400BB0083010A168A11D22EAC00003A0319D2
:102F0400912F013A0319912F033A0319912F013A92
:102F14000319912F073A031D013A031D08000230DB
:102F2400E0005708D827BC30AA000430AB007B0867
:102F34000A128A1146278316AC01AD01AE01023094
:102F44008312CB00BE30C9008030CA000230CC00EE
:102F54000A30F1007B080A128A11AD270A168A1179
:102F6400F7000A30F0007B08BD27F800F901CE0114
:102F7400CE0ACF010800A000A20170080319D62FC1
:102F8400A101A10A0310F01BCA2FF00DC32F0310D7
:102F9400A20D70082002031CD32F7008A002221473
:102FA4000310F00CA10BC92F22080800F000EC2F2D
:102FB4005A08FB0008005B08FB0008005C08FB00E3
:102FC40008005D08FB0008005E08FB0008005F08BD
:102FD400FB0008007008003A0319DA2F013A0319BC
:102FE400DD2F033A0319E02F013A0319E32F073ABF
:0C2FF4000319E62F013A031D0800E92F25
:08400000200011000200220063
:04400E00042FFF3E3E
:1042000000000100000000000300000000000100A9
:104210000000000000000100000000000000050098
:10422000000000000300000000000000000000008B
:104230000000010000000000030000000000010079
:104240000000000000000100000000000000050068
:10425000000000000300000000000000000000005B
:00000001FF
